:04000000A8EF05F070
:100008004482E1CF0FF0E2CF10F0D9CF11F0DACF70
:1000180012F0F3CF13F0F4CF14F0F6CF15F0F7CFBA
:1000280016F0F8CF17F0F5CF18F012D00F015F6B6C
:100038003F4A402A3D1CCD6E3E1CCE6E405003E127
:100048003D0E3F5C02E3395001E060800E01CE9125
:100058000E01CEB1EBD728D05F6B405003E13D0EC7
:100068003F5C05E30A0E3D26000E3E2208D04050B4
:1000780006E13C0E3F5C03E23D06D8A03E063D1C6F
:10008800CD6E3E1CCE6E345004E13D0E335C01E271
:100098006080ABEC0FF0406A010E3F6EF96BFA6BB3
:1000A800396A0F01129D12910F0112B1D5D707D0ED
:1000B800412A140E411802E1100E416E129D12BD24
:1000C800F7D766EF05F063CF35F064CF36F03950D7
:1000D80003E1D890FE0E36260F015F5157E1010E5D
:1000E8005F6F29C0C5F02AC0C6F0608035C029F00E
:1000F80036C02AF029C001F02AC002F029C003F056
:100108002AC004F003500102F3CF05F0F4CF06F043
:1001180004500202F3CF07F0F4CF08F003500202B4
:10012800F3500626F4500722000E0822045001025C
:10013800F3500626F4500722000E082202AE04D01F
:100148000350075E0450085A04AE04D00150075EFD
:100158000250085A055001014C2706504D230750FC
:100168004E2308504F2329C001F02AC002F0000E88
:1001780002BEFF0E036E046E01503C2702503D2361
:1001880003503E2304503F2364EF05F05F0553E11D
:10019800020E5F6F2BC0C7F02CC0C8F0608035C05E
:1001A8002BF036C02CF020EE2BF010EE2BF0E650A2
:1001B800DE02F3CF01F0F4CF02F0E550DF02F3CF17
:1001C80003F0F4CF04F0E650DD02F3500226F450B9
:1001D8000322000E0422E550DE02F3500226F450FA
:1001E8000322000E0422DDAE04D0E650035EE55083
:1001F800045AE4AE04D0DE50035EDD50045A0150C8
:10020800010148270250492303504A2304504B2335
:100218002BC001F02CC002F0000E02BEFF0E036ED0
:10022800046E015038270250392303503A230450F2
:100238003B2364EF05F0020E5F1902E064EF05F05E
:100248005F6B2DC0C9F02EC0CAF035C02DF036C086
:100258002EF020EE2DF010EE2DF0E650DE02F3CF5A
:1002680001F0F4CF02F0E550DF02F3CF03F0F4CF52
:1002780004F0E650DD02F3500226F4500322000E8B
:100288000422E550DE02F3500226F4500322000E49
:100298000422DDAE04D0E650035EE550045AE4AE15
:1002A80004D0DE50035EDD50045A0150010144279A
:1002B8000250452303504623045047232DC001F024
:1002C8002EC002F0000E02BEFF0E036E046E015037
:1002D800342702503523035036230450372339502E
:1002E80001E11ED11A6A1A50020DF350C50FD96EDA
:1002F800DA6ADECF01F0DDCF02F01A50020DF350BA
:10030800290FD96EDA6ADECF03F0DDCF04F0015091
:10031800035C056E02500458066E076A06BE07069F
:100328000750086E07C008F006C007F005C006F0C1
:10033800056A05C0CFF006C0D0F007C0D1F008C0EC
:10034800D2F01A50040D0C0EF324D96E010EF420CD
:10035800DA6EDE500001CF27DE50D023DE50D123E5
:10036800DD50D223D0C001F0D1C002F0D2C003F0DA
:10037800046A03BE04680150CF5D056E0250D0596F
:10038800066E0350D159076E0450D259086E1A50A0
:10039800040D0C0EF324D96E010EF420DA6E05C09C
:1003A800DEFF06C0DEFF07C0DEFF08C0DEFF020E6C
:1003B800016E1A50040D0C0EF324D96E010EF420B0
:1003C800DA6EDECF02F0DECF03F0DECF04F0DECF50
:1003D80005F0016601D007D0053405320432033236
:1003E8000232012EF6D702C02FF003C030F004C04D
:1003F80031F005C032F02F502F02F3CF01F0F4CFC7
:1004080002F0036A046A3002F3500226F450032211
:10041800000E042230502F02F3500226F45003221B
:10042800000E04222F503102F3500326F450042208
:1004380030503002F3500326F450042231502F027A
:10044800F3500326F450042232502F02F3500426AE
:1004580030503102F350042631503002F350042654
:1004680032502F02F350042601C0CBF002C0CCF06A
:1004780003C0CDF004C0CEF00C0E016ED890000180
:10048800CE33CD33CC33CB33012EF8D71A50040DED
:10049800000EF324D96E010EF420DA6ECB51DE265D
:1004A800CC51DE22CD51DE22CE51DE221A2A020E96
:1004B8001A6419D7F34BF42BB80EF31903E10B0E9A
:1004C800F419D8A4FDD2196A1950040D000EF324AA
:1004D800D96E010EF420DA6E1950040DF350B90FDD
:1004E800E16EE26ADECFE6FFDECFE6FFDECFE6FFB3
:1004F800DECFE6FF1950040D000EF324D96E010E6D
:10050800F420DA6EDE6ADE6ADE6ADD6A192A020E15
:100518001964DAD70001F36BF46B010EFD6FD0D2CA
:10052800AD0E016EFE0E026E3A50015E000E025ACA
:100538003F500126405002223B0E0126000E0222A7
:1005480001C0F6FF02C0F7FF0800F550376E386AA1
:1005580037BE380637C001F038C002F037C003F0A4
:1005680038C004F003500102F3CF05F0F4CF06F0D1
:1005780004500202F3CF07F0F4CF08F00350020250
:10058800F3500626F4500722000E082204500102F8
:10059800F3500626F4500722000E082202AE04D0BB
:1005A8000350075E0450085A04AE04D00150075E99
:1005B8000250085A0550502706505123075052231D
:1005C8000850532337C001F038C002F0000E02BEB5
:1005D800FF0E036E046E0150402702504123035062
:1005E80042230450432329C001F02AC002F0000E20
:1005F80002BEFF0E036E046EAD0E056EFE0E066E95
:100608003A50055E000E065A3F5005264050062215
:100618003B0E0526000E062205C0F6FF06C0F7FFB2
:100628000800F550076E000E07BEFF0E086E096E33
:100638000A6E07500102F3CF0BF0F4CF0CF00D6AED
:100648000E6A0202F3500C26F4500D22000E0E2200
:1006580008500102F3500C26F4500D22000E0E2211
:1006680007500302F3500D26F4500E2208500202E0
:10067800F3500D26F4500E2209500102F3500D26B6
:10068800F4500E2204500702F3500E2608500302BD
:10069800F3500E2609500202F3500E260A500102AA
:1006A800F3500E260B500001E7270C50E8230D509D
:1006B800E9230E50EA2329C001F02AC002F0000EF7
:1006C80002BEFF0E036E046EAD0E056EFE0E066EC4
:1006D8003A50055E000E065A3F5005264050062245
:1006E8003A0E0526000E062205C0F6FF06C0F7FFE3
:1006F8000800F550076E000E07BEFF0E086E096E63
:100708000A6E07500102F3CF0BF0F4CF0CF00D6A1C
:100718000E6A0202F3500C26F4500D22000E0E222F
:1007280008500102F3500C26F4500D22000E0E2240
:1007380007500302F3500D26F4500E22085002020F
:10074800F3500D26F4500E2209500102F3500D26E5
:10075800F4500E2204500702F3500E2608500302EC
:10076800F3500E2609500202F3500E260A500102D9
:10077800F3500E260B50E3270C50E4230D50E523CD
:100788000E50E6232BC001F02CC002F0000E02BE72
:10079800FF0E036E046EAD0E056EFE0E066E435020
:1007A800055E000E065A3F500526405006223B0EB5
:1007B8000526000E062205C0F6FF06C0F7FF080052
:1007C800F550076E000E07BEFF0E086E096E0A6E22
:1007D80007500102F3CF0BF0F4CF0CF00D6A0E6A4C
:1007E8000202F3500C26F4500D22000E0E2208507F
:1007F8000102F3500C26F4500D22000E0E22075071
:100808000302F3500D26F4500E2208500202F35052
:100818000D26F4500E2209500102F3500D26F45013
:100828000E2204500702F3500E2608500302F3501C
:100838000E2609500202F3500E260A500102F35008
:100848000E260B50DF270C50E0230D50E1230E50ED
:10085800E2232BC001F02CC002F0000E02BEFF0EF6
:10086800036E046EAD0E056EFE0E066E4350055EF9
:10087800000E065A3F500526405006223A0E05261D
:10088800000E062205C0F6FF06C0F7FF0800F55067
:10089800076E000E07BEFF0E086E096E0A6E07503F
:1008A8000102F3CF0BF0F4CF0CF00D6A0E6A0202CE
:1008B800F3500C26F4500D22000E0E2208500102AF
:1008C800F3500C26F4500D22000E0E22075003029E
:1008D800F3500D26F4500E2208500202F3500D2654
:1008E800F4500E2209500102F3500D26F4500E2246
:1008F80004500702F3500E2608500302F3500E2648
:1009080009500202F3500E260A500102F3500E2637
:100918000B50DB270C50DC230D50DD230E50DE235B
:100928002DC001F02EC002F0000E02BEFF0E036EB5
:10093800046EAD0E056EFE0E066E4250055E000E8C
:10094800065A3F500526405006223B0E0526000E4B
:10095800062205C0F6FF06C0F7FF0800F550076E2F
:10096800000E07BEFF0E086E096E0A6E07500102E0
:10097800F3CF0BF0F4CF0CF00D6A0E6A0202F350BD
:100988000C26F4500D22000E0E2208500102F350DE
:100998000C26F4500D22000E0E2207500302F350CD
:1009A8000D26F4500E2208500202F3500D26F45082
:1009B8000E2209500102F3500D26F4500E22045065
:1009C8000702F3500E2608500302F3500E26095072
:1009D8000202F3500E260A500102F3500E260B5065
:1009E800D7270C50D8230D50D9230E50DA232DC009
:1009F80001F02EC002F0000E02BEFF0E036E046E60
:100A0800AD0E056EFE0E066E4250055E000E065ACD
:100A18003F500526405006223A0E0526000E0622B3
:100A280005C0F6FF06C0F7FF0800F550076E000E78
:100A380007BEFF0E086E096E0A6E07500102F3CF5B
:100A48000BF0F4CF0CF00D6A0E6A0202F3500C267C
:100A5800F4500D22000E0E2208500102F3500C260D
:100A6800F4500D22000E0E2207500302F3500D26FB
:100A7800F4500E2208500202F3500D26F4500E22B4
:100A880009500102F3500D26F4500E2204500702BB
:100A9800F3500E2608500302F3500E2609500202A6
:100AA800F3500E260A500102F3500E260B50D3279E
:100AB8000C50D4230D50D5230E50D623334A342A54
:100AC8000E01CB910E01CBB167EF00F00DD0540EA3
:100AD8003B24D96EDA6A010EDA22DF509A6E3B2A7D
:100AE8003C503B1801E1C599CDB9C5A915D0EFD740
:100AF8000001EF2B000EF023F123F223F94BFA2B20
:100B0800EB51EC11ED11EE1105E0EB07000EEC5B7B
:100B1800ED5BEE5B0E01CE97CEB7EAD718C0F5FFB6
:100B280017C0F8FF16C0F7FF15C0F6FF14C0F4FF92
:100B380013C0F3FF12C0DAFF11C0D9FF10C0E2FFE3
:100B48000FC0E1FF44921100818EABEF05F03CEF3E
:100B580014F00101DC6BDD6B980EDE6FC10EDF6FE8
:100B6800B80ED86F1E0ED96F950EDA6FC10EDB6FF7
:100B7800710ED46F3D0ED56F920ED66FC10ED76F22
:100B8800DCC16DF0DDC16EF0DEC16FF0DFC170F069
:100B9800A2EC14F06DC0A6F06EC0A7F06FC0A8F06C
:100BA80070C0A9F0B7EC09F0A6C0C0F1A7C0C1F1A8
:100BB800A8C0C2F1A9C0C3F16D6B6E6BC00E6F6F98
:100BC800400E706FA2EC14F06DC0A6F06EC0A7F0D6
:100BD8006FC0A8F070C0A9F0B7EC09F0A6C0C4F1C6
:100BE800A7C0C5F1A8C0C6F1A9C0C7F1C0C18DF0A2
:100BF800C1C18EF0C2C18FF0C3C190F0C4C191F0E1
:100C0800C5C192F0C6C193F0C7C194F0B6EC0EF01E
:100C18008DC0E8F18EC0E9F18FC0EAF190C0EBF128
:100C28006D6B6E6BC00E6F6F400E706FA2EC14F0A0
:100C38006DC0B8F16EC0B9F16FC0BAF170C0BBF148
:100C480049EC12F0B8C1C8F1B9C1C9F1BAC1CAF1C9
:100C5800BBC1CBF1DCC16DF0DDC16EF0DEC16FF060
:100C6800DFC170F0A2EC14F06DC0B8F16EC0B9F13C
:100C78006FC0BAF170C0BBF149EC12F0B8C1CCF149
:100C8800B9C1CDF1BAC1CEF1BBC1CFF1CCC187F0AA
:100C9800CDC188F0CEC189F0CFC18AF0E8C11FF07C
:100CA800E9C120F0EAC121F0EBC122F0C8C11BF074
:100CB800C9C11CF0CAC11DF0CBC11EF010EC0BF06D
:100CC8001BC08BF01CC08CF01DC08DF01EC08EF0B8
:100CD80084EC14F0D8C16DF0D9C16EF0DAC16FF0B0
:100CE800DBC170F0A2EC14F06DC0A6F06EC0A7F0E6
:100CF8006FC0A8F070C0A9F0B7EC09F0A6C0C0F1A9
:100D0800A7C0C1F1A8C0C2F1A9C0C3F16D6B6E6BD9
:100D1800C00E6F6F400E706FA2EC14F06DC0A6F09D
:100D28006EC0A7F06FC0A8F070C0A9F0B7EC09F0CA
:100D3800A6C0C4F1A7C0C5F1A8C0C6F1A9C0C7F133
:100D4800C0C18DF0C1C18EF0C2C18FF0C3C190F097
:100D5800C4C191F0C5C192F0C6C193F0C7C194F067
:100D6800B6EC0EF08DC0E4F18EC0E5F18FC0E6F16F
:100D780090C0E7F16D6B6E6BC00E6F6F400E706FB9
:100D8800A2EC14F06DC0B8F16EC0B9F16FC0BAF141
:100D980070C0BBF149EC12F0B8C1C8F1B9C1C9F1D2
:100DA800BAC1CAF1BBC1CBF1D8C16DF0D9C16EF0DF
:100DB800DAC16FF0DBC170F0A2EC14F06DC0B8F1CD
:100DC8006EC0B9F16FC0BAF170C0BBF149EC12F056
:100DD800B8C1CCF1B9C1CDF1BAC1CEF1BBC1CFF127
:100DE800CCC187F0CDC188F0CEC189F0CFC18AF0DF
:100DF800E4C11FF0E5C120F0E6C121F0E7C122F00F
:100E0800C8C11BF0C9C11CF0CAC11DF0CBC11EF07E
:100E180010EC0BF01BC08BF01CC08CF01DC08DF0CB
:100E28001EC08EF084EC14F0D4C16DF0D5C16EF004
:100E3800D6C16FF0D7C170F0A2EC14F06DC0A6F067
:100E48006EC0A7F06FC0A8F070C0A9F0B7EC09F0A9
:100E5800A6C0C0F1A7C0C1F1A8C0C2F1A9C0C3F122
:100E68006D6B6E6BC00E6F6F400E706FA2EC14F05E
:100E78006DC0A6F06EC0A7F06FC0A8F070C0A9F052
:100E8800B7EC09F0A6C0C4F1A7C0C5F1A8C0C6F167
:100E9800A9C0C7F1C0C18DF0C1C18EF0C2C18FF029
:100EA800C3C190F0C4C191F0C5C192F0C6C193F01E
:100EB800C7C194F0B6EC0EF08DC0E0F18EC0E1F140
:100EC8008FC0E2F190C0E3F16D6B6E6BC00E6F6F77
:100ED800400E706FA2EC14F06DC0B8F16EC0B9F19D
:100EE8006FC0BAF170C0BBF149EC12F0B8C1C8F1DB
:100EF800B9C1C9F1BAC1CAF1BBC1CBF1D4C16DF056
:100F0800D5C16EF0D6C16FF0D7C170F0A2EC14F065
:100F18006DC0B8F16EC0B9F16FC0BAF170C0BBF165
:100F280049EC12F0B8C1CCF1B9C1CDF1BAC1CEF1DA
:100F3800BBC1CFF1CCC187F0CDC188F0CEC189F05B
:100F4800CFC18AF0E0C11FF0E1C120F0E2C121F079
:100F5800E3C122F0C8C11BF0C9C11CF0CAC11DF011
:100F6800CBC11EF010EC0BF01BC08BF01CC08CF03A
:100F78001DC08DF01EC08EF084EF14F06C0E8F6FC4
:100F8800E0D1250E971909E068C0D9FF69C0DAFFDA
:100F980097C0DFFF684B692BD4D1946B956B966B28
:100FA80003D096856A4B6B2B6AC0F6FF6BC0F7FFC0
:100FB8000800F550300AF5E06AC0F6FF6BC0F7FF8D
:100FC8000800F550F4EC14F037E30001946B956BCE
:100FD80094C01BF095C01CF01E6A0A0E1D6ED1EC61
:100FE80014F01BC094F01CC095F0D00E0001886F5F
:100FF80089696AC0F6FF6BC0F7FF0800F5508A6F71
:101008008B6B88518A2789518B238A5194278B515E
:1010180095236A4B6B2B6AC0F6FF6BC0F7FF08007D
:10102800F550F4EC14F008E3D3D7968905D0968FE1
:101038001BD0C00E961318D06AC0F6FF6BC0F7FF1E
:1010480000016A4B6B2B0800F5CF97F0975101E12F
:1010580084D1640A09E00D0A07E0050AE6E0190AE6
:10106800E8E00D0AE4E06DD196C088F0C00E88175C
:101078002AE196A90DD08F51D96EDA6ADECF90F0A9
:10108800DECF91F0DECF92F0DECF93F0040E0DD0DC
:101098008F51D96EDA6ADECF90F0DDCF91F0000E75
:1010A80091BFFF0E926F936F020E8F2793AF62D09E
:1010B800030E9613931F921F911F906D000E91239C
:1010C8009223932357D096A90DD08F51D96EDA6AFF
:1010D800DECF90F0DECF91F0DECF92F0DECF93F04E
:1010E800040E0ED08F51D96EDA6ADECF88F0DDCFCC
:1010F80089F088C090F089C091F0926B936B020ED2
:101108008F2738D0010E976F9751040D250EF324C1
:10111800F66EFF0EF420F76E0900F550905D090099
:10112800F55091590900F55092590900F550935915
:1011380028E3972B0A0E971924E0E6D7010E976F3C
:101148009751040D4D0EF324F66EFF0EF420F76E42
:101158000900F550905D0900F55091590900F550C6
:1011680092590900F55093590CE3972B080E9719DB
:1011780008E0E6D79651C00BC5E0800ADFE0400AD8
:10118800C1E09451951108E096C088F0030E8817C5
:1011980003E09407D8A095079751886F896B9451FD
:1011A800885D8951800A8A6F9551800A8A5905E2BB
:1011B8009751945F000E955B02D0946B956B96A542
:1011C8001CD096C088F0030E881708E068C0D9FFC5
:1011D80069C0DAFF2D0EDF6E684B692B94519511AB
:1011E8002AE068C0D9FF69C0DAFF300EDF6E684BAD
:1011F800692B9407D8A09507F1D7945195110EE063
:1012080068C0D9FF69C0DAFF200EDF6E684B692B12
:101218009407D8A0950794519511F2E196C088F0EB
:10122800030E881708E068C0D9FF69C0DAFF2D0EE1
:10123800DF6E684B692B97C08DF08E6B7BD08DC0AD
:1012480088F08EC089F0D89088378937D890883749
:101258008937250E8825F66EFF0E8921F76E09005D
:10126800F5CF1FF00900F5CF20F00900F5CF21F0E8
:101278000A00F5CF22F090C01BF091C01CF092C07C
:101288001DF093C01EF034EC13F01BC060F01CC0BE
:1012980061F01DC062F01EC063F00A0E646F656BDA
:1012A800666B676BDAEC13F06051300F976F3AD0CA
:1012B80090C01BF091C01CF092C01DF093C01EF0AE
:1012C8008DC088F08EC089F0D89088378937D8903B
:1012D800883789374D0E8825F66EFF0E8921F76EFF
:1012E8000900F5CF1FF00900F5CF20F00900F5CF70
:1012F80021F00A00F5CF22F034EC13F01B500F0B4D
:101308008C6FE60E8C25F66EF76AFF0EF722080042
:10131800F5CF97F007D09651C00B91E0800AC8E04E
:10132800400A8DE068C0D9FF69C0DAFF97C0DFFFC7
:10133800684B692B8D07D8A08E078D29ECE18E2983
:10134800EAE16AC0F6FF6BC0F7FF6A4B6B2B080037
:10135800F5CF97F0975101E014D668C0D9FF69C05E
:10136800DAFFDF6A000CB66BA9AF14D0A6C01BF079
:10137800A7C01CF0A8C01DF0A9C01EF0E4EC14F032
:101388001BC0A6F01CC0A7F01DC0A8F01EC0A9F085
:10139800010EB66FA6C01BF0A7C01CF0A8C01DF0B8
:1013A800A9C01EF0830E1F6EF90E206E220E216E4C
:1013B8003E0E226E10EC0BF01BC0A6F01CC0A7F06E
:1013C8001DC0A8F01EC0A9F0A6C087F0A7C088F06D
:1013D800A8C089F0A9C08AF0A6C07DF0A7C07EF099
:1013E800A8C07FF0A9C080F0E5EC10F07DC08BF0BC
:1013F8007EC08CF07FC08DF080C08EF084EC14F03D
:1014080087C0A6F088C0A7F089C0A8F08AC0A9F054
:10141800A6C01BF0A7C01CF0A8C01DF0A9C01EF0F4
:101428001F6A206A800E216E400E226E10EC0BF0AF
:101438001BC0A6F01CC0A7F01DC0A8F01EC0A9F0D4
:101448001B6A1C6A1D6A400E1E6EA6C01FF0A7C04C
:1014580020F0A8C021F0A9C022F0ECEC12F01DE2A7
:10146800A6C087F0A7C088F0A8C089F0A9C08AF0F4
:1014780000018B6B8C6B8D6B400E8E6F84EC14F0BF
:1014880087C0A6F088C0A7F089C0A8F08AC0A9F0D4
:10149800B651010ED8A4000EB66F1B6A1C6A800EE6
:1014A8001D6E3F0E1E6EA6C01FF0A7C020F0A8C07C
:1014B80021F0A9C022F0ECEC12F018E20001876BD1
:1014C800886B896B400E8A6FA6C08BF0A7C08CF022
:1014D800A8C08DF0A9C08EF084EC14F087C0A6F0E7
:1014E80088C0A7F089C0A8F08AC0A9F0A6C01BF0E0
:1014F800A7C01CF0A8C01DF0A9C01EF0A6C01FF010
:10150800A7C020F0A8C021F0A9C022F010EC0BF071
:101518001BC0B2F01CC0B3F01DC0B4F01EC0B5F0C3
:10152800B2C07DF0B3C07EF0B4C07FF0B5C080F02B
:10153800810E816FFF0E826F846B030E836F62ECE6
:1015480011F07DC0AAF07EC0ABF07FC0ACF080C0C7
:10155800ADF0AAC091F0ABC092F0ACC093F0ADC0B2
:1015680094F0846B040E836F6D0E816FFF0E826F93
:10157800B2C07DF0B3C07EF0B4C07FF0B5C080F0DB
:1015880062EC11F07DC08DF07EC08EF07FC08FF0D0
:1015980080C090F0B6EC0EF08DC0AEF08EC0AFF00B
:1015A8008FC0B0F090C0B1F0A6C01BF0A7C01CF06F
:1015B800A8C01DF0A9C01EF0AEC01FF0AFC020F03B
:1015C800B0C021F0B1C022F010EC0BF01BC0A6F0A7
:1015D8001CC0A7F01DC0A8F01EC0A9F0B65113E0AA
:1015E800A6C01BF0A7C01CF0A8C01DF0A9C01EF023
:1015F800E4EC14F01BC0A6F01CC0A7F01DC0A8F0B6
:101608001EC0A9F01200A6C0A6F0A7C0A7F0A8C0E7
:10161800A8F0A9C0A9F012001E50800B0001606F4D
:101628001E501E24626F1DBE6281625108E062294D
:1016380004E11B6A1C6A1D6A1E6A1D8E04D01B6A9F
:101648001C6A1D6A1E6A2250800B601B22502224CD
:10165800616F21BE6181615108E0612904E11F6A5F
:10166800206A216A226A218E04D01F6A206A216AB0
:10167800226A615102E0625105E11B6A1C6A1D6A17
:101688001E6A120021501B02F3CF6BF0F4CF6CF0EE
:101698006B51636F646B656B666B6C51676F686BDE
:1016A800696B6A6B20501C02F3CF6BF0F4CF6CF0BF
:1016B8006B516327000E6423652366236C516727EB
:1016C800000E682369236A231F501D02F3CF6BF0B5
:1016D800F4CF6CF06B516327000E642365236623F7
:1016E8006C516727000E682369236A2365C066F07A
:1016F80064C065F063C064F0636B1F501C02F3CFD5
:101708006BF0F4CF6CF06B5163276C516423000EBF
:101718006523662320501B02F3CF6BF0F4CF6CF0E7
:101728006B5163276C516423000E6523662365C0E3
:1017380066F064C065F063C064F0636B1F501B0201
:10174800F3CF6BF0F4CF6CF06B5163276C516423CB
:10175800000E6523662321501C02F3CF6BF0F4CFF3
:101768006CF06B5167276C516823000E69236A235C
:1017780020501D02F3CF6BF0F4CF6CF06B5167274C
:101788006C516823000E69236A2321501D02F3CF90
:101798006BF0F4CF6CF06B51236E6C51246E256A9C
:1017A800266A25C026F024C025F023C024F0236A29
:1017B80023506727245068232550692326506A231D
:1017C80066516727000E682369236A2365C066F09F
:1017D80064C065F063C064F0636B615162C023F05C
:1017E800246A2326000E2422820E23246B6FFF0E08
:1017F80024206C6F0FD0D8906737683769376A37FD
:1018080066BF6781D89063376437653766376B077B
:10181800D8A06C0769AFEFD7616B66AF13D063517F
:10182800236E6451246E6551256E7F0E6615266EF3
:10183800235024102510261003E0010E616F02D0FA
:1018480067B1FBD761510EE0672B000E682369234F
:101858006A236AA107D06A356A3369336833673304
:101868006B4B6C2B6CBF0AD06C5102E16B2906E301
:10187800676B686B800E696F7F0E15D06CBF04D0E4
:101888006C5108E16B0506E2676B686B696B6A6B04
:10189800606B0AD06BC062F07F0E69176A6B62B129
:1018A800698FD89062316A6F60516A1367C01BF004
:1018B80068C01CF069C01DF06AC01EF012007051AB
:1018C800800B796F705170257B6F6FBF7B817B5167
:1018D80008E07B2904E16D6B6E6B6F6B706B6F8F2B
:1018E80003D06D6B6E6B6F6B706B7451800B7A6F7E
:1018F800791901E0798D745174257A6F73BF7A81F3
:101908007A5108E07A2904E1716B726B736B746B1E
:10191800738F03D0716B726B736B746B7B517A5DD1
:1019280022E279AD02D0800E791B7BC07CF07AC0B0
:101938007BF07CC07AF06DC07CF071C06DF07CC02B
:1019480071F06EC07CF072C06EF07CC072F06FC037
:101958007CF073C06FF07CC073F070C07CF074C012
:1019680070F07CC074F07C6B7B517AC075F0766B3C
:10197800755F000E765B76BF25D0765103E11A0EAF
:10198800755D20E36D516E116F117011010ED8B4A1
:10199800000E7C6F6D6B6E6B6F6B706B7AC07BF03B
:1019A80014D07CA105D0D8907C3101097C6F02D07D
:1019B800D8907C336DB17C8F703570336F336E3354
:1019C8006D337B2B7A517B5DECE379BD23D07B5162
:1019D80005E16D6B6E6B6F6B706B120071516D274B
:1019E80072516E2373516F237451702370A168D0A4
:1019F8007CA105D0D8907C3101097C6F02D0D890A9
:101A08007C336DB17C8F703570336F336E336D33CB
:101A18007B2B56D071516D5D72516E5973516F5950
:101A28007051800A756F7451800A755923E26D519F
:101A3800715D756F6E517259766F6F517359776F0B
:101A480070517459786FFF0E75256D6FFF0E7621F2
:101A58006E6FFF0E77216F6FFF0E7821706F800E0B
:101A6800791B7C6D7C510EE16D2B000E6E236F236C
:101A7800702308D071516D5F72516E5B73516F5B4B
:101A88007451705B6D516E116F11701117E17C51BB
:101A980015E16D6B6E6B6F6B706B1200D8906D37C4
:101AA8006E376F3770377CBF6D817CA102D0D880CC
:101AB80001D0D8907C377B5101E07B076FAFEED720
:101AC8007A6B7CAF0AD07CC075F07F0E751703E087
:101AD800010E7A6F02D06DB1FBD77A510FE06D2BF2
:101AE800000E6E236F23702370A108D070357033F9
:101AF8006F336E336D337B2901E07B2B7B2902E04A
:101B08007B5107E16D6B6E6B6F6B706B7B5101E105
:101B1800796B7BA102D06F8F01D06F9FD8907B31FA
:101B2800706F79BF708F6DC06DF06EC06EF06FC052
:101B38006FF070C070F01200DAEC11F0ADEC05F047
:101B4800010E1C6EF40E1B6E65EC14F00F015F6B3A
:101B58000001FA5103E14B0EF95D35E3000EFA6F0F
:101B68004B0EF96F090E3E6EC40E3D6E010E396EB6
:101B7800FD5129E0540E686F010E696FC90E6A6F36
:101B8800FF0E6B6FB9C06CF0BAC06DF0BBC06EF0E1
:101B9800BCC06FF0BDC070F0BEC071F0BFC072F0C5
:101BA800C0C073F0C1C074F0C2C075F0C3C076F095
:101BB800C4C077F00B0E796FB80E786FC2EC07F0DF
:101BC800030EFF13FD6BFE5101E187D0540E686FC1
:101BD800010E696F910E6A6FFF0E6B6F2CC16CF06E
:101BE8002DC16DF02EC16EF02FC16FF028C170F0BD
:101BF80029C171F02AC172F02BC173F024C174F0AD
:101C080025C175F026C176F027C177F020C178F09C
:101C180021C179F022C17AF023C17BF01CC17CF08C
:101C28001DC17DF01EC17EF01FC17FF018C180F07C
:101C380019C181F01AC182F01BC183F0FBC084F086
:101C4800FCC085F04150030B866F876BC2EC07F030
:101C580001012C6B2D6B2E6B2F6B286B296B2A6B5C
:101C68002B6B246B256B266B276B206B216B226BF0
:101C7800236B1C6B1D6B1E6B1F6B186B196B1A6B20
:101C88001B6B0001FB6BFC6B17D03A6A140E436E9A
:101C9800280E10D03A6A280E436E140E0BD0050E8B
:101CA8003A6E190E436E2D0E05D0050E3A6E2D0EA6
:101CB800436E190E426E0ED04150030BB76FB86BCE
:101CC800B85108E1B751E1E0010AE4E0030AE7E0AE
:101CD800010AEBE0030EFF13FE6B9DA202D09D9854
:101CE8009D880E019DA302D09D999D890001FF51F9
:101CF80001E12ED7540E1B6E010E1C6EBDEC14F0C4
:101D08001BC0D2F11CC0D3F11C6A1B6A540E1D6E95
:101D1800010E1E6ED2C11FF0D3C120F00BEC14F0DF
:101D28001BC0D0F11CC0D1F1540E0101D225000115
:101D3800686F010E0101D3210001696FF70E6A6F08
:101D4800FF0E6B6FD0C16CF0D1C16DF0C2EC07F023
:101D58000101D251060F3C6E3B6A02EC15F00001FE
:101D6800FF6BF6D69051800B9D6F90519025A46F14
:101D78008FBFA481A45108E0A42904E18D6B8E6B68
:101D88008F6B906B8F8F03D08D6B8E6B8F6B906B7F
:101D98009451800B9D1B94519425A56F93BFA581E9
:101DA800A55108E0A52904E1916B926B936B946BA4
:101DB800938F03D0916B926B936B946B91519211AB
:101DC8009311941113E18D6B8E6B8F6B906B800E5A
:101DD8008F137F0E90139D5190138DC08DF08EC080
:101DE8008EF08FC08FF090C090F01200A45105E1E2
:101DF8008D6B8E6B8F6B906B1200A551A4C095F004
:101E0800966B955F000E965B7F0E95259E6F000E74
:101E180096219F6F8DC099F08EC09AF08FC09BF06D
:101E280090C09CF08D6B8E6B8F6B906BA06BA16BD1
:101E3800A26BA36BA56B26D0A55111E0D89099375A
:101E48009A379B379C37D8908D378E378F37903796
:101E5800A3BF8D81D890A037A137A237A33791515E
:101E6800995D92519A5993519B5994519C5909E300
:101E7800A38D9151995F92519A5B93519B5B9451B9
:101E88009C5BA52B190EA565D7D799519A119B1163
:101E98009C1111E0A0810FD0D8908D378E378F37E5
:101EA8009037A3BF8D81D890A037A137A237A33729
:101EB8009E07D8A09F078FAFEFD7A56BA3AF13D00E
:101EC800A051956FA151966FA251976F7F0EA315E0
:101ED800986F955196119711981103E0010EA56F0F
:101EE80002D08DB1FBD7A5510EE08D2B000E8E23AD
:101EF8008F23902390A107D0903590338F338E3362
:101F08008D339E4B9F2B9FBF0AD09F5102E19E2984
:101F180006E39F6B9E698D6B8E6B8F6B906B9FBF7B
:101F280004D09F5109E19E0507E29E6B9F6B8D6B64
:101F38008E6B8F6B906B9D6B9EC0A4F0A4A102D09A
:101F48008F8F01D08F9FD890A431906F44D7000114
:101F5800FE516FE1E75101012C270001E851010111
:101F68002D230001E95101012E230001EA5101014D
:101F78002F230001E351010128270001E451010149
:101F880029230001E55101012A230001E65101013D
:101F98002B230001DF51010124270001E051010139
:101FA80025230001E151010126230001E25101012D
:101FB80027230001DB51010120270001DC51010129
:101FC80021230001DD51010122230001DE5101011D
:101FD80023230001D75101011C270001D851010119
:101FE8001D230001D95101011E230001DA5101010D
:101FF8001F230001D351010118270001D451010109
:1020080019230001D55101011A230001D6510101FC
:102018001B2333500001FB273450FC23F74BF82BCC
:10202800F85103E1320EF75D04E3010EFE6FF76B22
:10203800F86B0101506B516B526B536B406B416BEA
:10204800426B436B4C6B4D6B4E6B4F6B3C6B3D6BFC
:102058003E6B3F6B486B496B4A6B4B6B386B396B0C
:102068003A6B3B6B446B456B466B476B346B356B1C
:10207800366B376B0001E76BE86BE96BEA6BE36B78
:10208800E46BE56BE66BDF6BE06BE16BE26BDB6BE4
:10209800DC6BDD6BDE6BD76BD86BD96BDA6BD36B14
:1020A800D46BD56BD66B336A346A1200646F000147
:1020B80064511CE028AE1AD025C060F026C061F03B
:1020C80027C062F028C063F0601F611F621F631F92
:1020D800602B000E61236223632360C066F061C039
:1020E80067F062C068F063C069F008D025C066F088
:1020F80026C067F027C068F028C069F02550261070
:102108002710281005E1256A266A276A286A12001E
:10211800960E656F06D0652BD890693368336733A0
:102128006633606B616B626BFE0E6915636F60519D
:102138006111621163110CE0EED7652B662B000E5E
:10214800672368236923D890693368336733663314
:10215800606B616B626B6951636F605161116211F1
:10216800631107E0EAD76507D8906637673768379D
:10217800693768BF03D0020E6561F5D765A1689F0E
:10218800D890653365C060F0616B626B636B60C04B
:1021980063F0626B616B606B60516613615167132A
:1021A8006251681363516913645102E028BE698F54
:1021B80066C025F067C026F068C027F069C028F01F
:1021C80012007DC060F07EC061F07FC062F080C008
:1021D80063F0850E646F6FEC13F086AF0ED080AF9E
:1021E80007D07D6B7E6B800E7F6FBF0E806FBF0C3C
:1021F8007D6B7E6B7F6B806B1200865103E11D0E39
:10220800855D09E37DC07DF07EC07EF07FC07FF0F4
:1022180080C080F012007DC01BF07EC01CF07FC023
:102228001DF080C01EF09EEC12F01BC025F01CC0F3
:1022380026F01DC027F01EC028F0010E5AEC10F041
:1022480025C081F026C082F027C083F028C084F022
:102258007DC01BF07EC01CF07FC01DF080C01EF04A
:1022680081C01FF082C020F083C021F084C022F01A
:10227800ECEC12F01AE281C06DF082C06EF083C0FF
:102288006FF084C070F00001716B726B800E736F19
:10229800BF0E746F63EC0CF06DC07DF06EC07EF005
:1022A8006FC07FF070C080F0120081C07DF082C0E6
:1022B8007EF083C07FF084C080F0120083C085F078
:1022C80084C086F0D89085378637D890853786378A
:1022D80081C087F082C088F085518727865188237E
:1022E80087C0F6FF88C0F7FF0900F5CF89F009001D
:1022F800F5CF8AF00900F5CF8BF00A00F5CF8CF006
:1023080049D089C01FF08AC020F08BC021F08CC052
:1023180022F07DC01BF07EC01CF07FC01DF080C085
:102328001EF010EC0BF01BC06DF01CC06EF01DC051
:102338006FF01EC070F08307D8A0840783C085F0B3
:1023480084C086F0D89085378637D8908537863709
:1023580081C087F082C088F08551872786518823FD
:1023680087C0F6FF88C0F7FF0900F5CF71F00900B4
:10237800F5CF72F00900F5CF73F00A00F5CF74F0CD
:1023880063EC0CF06DC089F06EC08AF06FC08BF002
:1023980070C08CF083518411B4E189C07DF08AC08B
:1023A8007EF08BC07FF08CC080F01200550E0E01BD
:1023B800A06FAA0EA06FA091B551E00B1709B56FD9
:1023C800090EF66F8D51E00B0B098D6F0B0EF36F35
:1023D800550EA06FAA0EA06FA081600ED86F060ED2
:1023E800DE6F8D6A836A070E0F01116F106B070E7F
:1023F800886E8E6A846A196B690E896E010E136F76
:10240800400E146F8F6A856A216B206BF00E8A6EFE
:10241800030E9C6E400E9B6E9C6A440E9B6E080ECB
:102428009F6E240E9E6E900E9D6E0E019C6B440E48
:102438009B6F080E9F6F900E9D6F240E9E6F0F0E60
:102448000F01576F840E606E280E5C6F100ED56EEC
:10245800580ED66E0E01CA9BD58ED06A010ED26E6A
:102468003D1CCD6E3E1CCE6E030ECF6EFA0EB66EC0
:10247800A00EB86E010EB96ED00EB76EA00EF26E39
:10248800C687C681C381C289A00CDB0E1B6E0F0EE6
:102498001C6E490E1D6E400E1E6EB8C11FF0B9C1EC
:1024A80020F0BAC121F0BBC122F0ECEC12F02EE210
:1024B800B8C16DF0B9C16EF0BAC16FF0BBC170F0B0
:1024C800E40E0001716FCB0E726F960E736FC00E23
:1024D800746F63EC0CF06DC0BCF16EC0BDF16FC0E1
:1024E800BEF170C0BFF1BCC1A6F0BDC1A7F0BEC1AE
:1024F800A8F0BFC1A9F0B7EC09F0A6C0B8F1A7C011
:10250800B9F1A8C0BAF1A9C0BBF11200B8C16DF009
:10251800B9C16EF0BAC16FF0BBC170F0DB0E00013B
:10252800716F0F0E726FC90E736F3F0E746F63EC8D
:102538000CF0D1D71D341E34246E245005E11B6ADB
:102548001C6A1D6A1E6A12001BC01FF01CC020F006
:102558001DC021F01EC022F0200E05D0D8902232D6
:10256800213220321F32E82EF9D71F50236E1D8EDC
:102578001E6A960E245E24AE0CD02450800A970F53
:10258800DEE3D8901E321D321C321B32243EF9D7AE
:102598000CD01F0E246407D0D2D7D8901B361C3617
:1025A8001D361E3624062450F8E1235008E01E1E6E
:1025B8001D1E1C1E1B6C000E1C221D221E221BC071
:1025C8001BF01CC01CF01DC01DF01EC01EF0120028
:1025D800236A246A800E1D14256E7F0E1E14266E33
:1025E800235024102510261004E11B6A1C6A1D6A5A
:1025F8001E6A236A246A800E2114256E7F0E221417
:10260800266E235024102510261004E11F6A206A24
:10261800216A226A1EAE09D01B6C1C1ED8B01C2A67
:102628001D1ED8B01D2A800E1E5622AE09D01F6C62
:10263800201ED8B0202A211ED8B0212A800E22566A
:10264800800E1E1A221A1F501B5C20501C58215045
:102658001D5822501E5802E2D8901200D88012004D
:10266800236A246A256A266A1F5020102110221026
:1026780029E0010E276E06D0D8901F362036213665
:102688002236272A22AEF8D7D89023362436253684
:1026980026361F501B5C20501C5821501D582250B4
:1026A8001E5809E31F501B5E20501C5A21501D5A0A
:1026B80022501E5A2380D8902232213220321F32D3
:1026C800272EE2D723C01BF024C01CF025C01DF024
:1026D80026C01EF0120060C01BF061C01CF062C072
:1026E8001DF063C01EF01F6A206A216A226AA8ECE6
:1026F80013F006E36451D96EDA6ADE6ADD6A000C0B
:1027080063517F0B276E286AD89027362836645184
:10271800D96EDA6A27C0DEFF28C0DDFF6451D96EA2
:10272800DA6A010E62AF000EDE12000EDD1264518D
:10273800D96EDA6A820EDE26FF0EDD226351800B27
:102748003F09636F629F1200236A246A800E1D147A
:10275800256E7F0E1E14266E235024102510261079
:1027680004E11B6A1C6A1D6A1E6A236A246A800EB9
:102778002114256E7F0E2214266E23502410251056
:10278800261004E11F6A206A216A226A1F501B185A
:1027980009E120501C1806E121501D1803E12250C0
:1027A8001E1802E0D8901200D880120064516511FA
:1027B8006611671123E0010E286E06D0D8906437A1
:1027C800653766376737282A67AFF8D76451605D81
:1027D80065516159665162596751635908E36451FB
:1027E800605F6551615B6651625B6751635BD8905E
:1027F8006733663365336433282EE8D760C060F0EA
:1028080061C061F062C062F063C063F01200226AC6
:10281800236A20D022501D24D96E23501E20DA6E40
:10282800DF501B1A256A080E246E1BA008D0D8900A
:102838001C321B32010E1B1AA00E1C1A03D0D89092
:102848001C321B322406D8A0250624502510EDE1A1
:10285800224A232A1F50225C2350800A216E2050CE
:10286800800A2158D7E31BC01BF01CC01CF01200C3
:10287800140EF66E2A0EF76E000EF86E00EE3DF09E
:1028880010EE07F00900F5CFEEFFE550E150FAE150
:1028980001EE00F0B80EEE6AE806FDE100EEB9F0D0
:1028A800470EEE6AE806FDE100EE29F0140EEE6A26
:1028B800E806FDE144904492000EF86E0001A0EF96
:1028C8000DF0EFC021F0F0C022F0F1C023F0F2C00B
:1028D80024F01B5021241D6E1C5022201E6E000E59
:1028E80023201F6E000E2420206E1D500001EF5D76
:1028F8001E50F0591F50F1592050F259EAE31200C6
:102908000001800E8E1B87C06DF088C06EF089C0F4
:102918006FF08AC070F08BC071F08CC072F08DC0FF
:1029280073F08EC074F063EC0CF06DC087F06EC06D
:1029380088F06FC089F070C08AF012006DC01BF07B
:102948006EC01CF06FC01DF070C01EF0340E1F6EFC
:10295800FA0E206E8E0E216E3C0E226E10EC0BF0DD
:102968001BC06DF01CC06EF01DC06FF01EC070F073
:1029780012001BC01DF01CC01EF002D01D4A1E2AEA
:102988001DC0D9FF1EC0DAFFDF50F8E11B501D5CE7
:102998001B6E1C501E581C6E12001B501D02F3CFDC
:1029A8001FF0F4CF20F01B501E02F35020261C50BD
:1029B8001D02F35020261FC01BF020C01CF012007F
:1029C8001B501C101D101E1002E0800E1E1A1BC08A
:1029D8001BF01CC01CF01DC01DF01EC01EF0120014
:1029E8001D6E1C6A3A0E1D6005D02F0E1D6402D0A4
:1029F800010E1C6E1CC01BF01B3012001C6A010E5D
:102A08001B6E65EC14F00E01C5891200C4090100A3
:032A18001428146B
:10FEAC000000060D13191F252A2E3236393B3D3E14
:10FEBC003E3E3D3B3936322E2A251F19130D0600C6
:10FECC00FAF3EDE7E1DBD6D2CECAC7C5C3C2C2C2D4
:10FEDC00C3C5C7CACED2D6DBE1E7EDF3FA00060DF7
:10FEEC0013191F252A2E3236393B3D3E3E3E3D3BF3
:10FEFC003936322E2A251F19130D0600FAF3EDE7B9
:10FF0C00E1DBD6D2CECAC7C5C3C2C2C2C3C5C7CA3B
:10FF1C00CED2D6DBE1E7EDF3FA010000000A0000D7
:10FF2C000064000000E803000010270000A0860118
:10FF3C000040420F008096980000E1F50500CA9A37
:10FF4C003B01000000100000000001000000100048
:10FF5C000000000100000010000000000100000083
:10FF6C0010ECF34A48359595C717C1DC45FDDB6DA0
:10FF7C00C372B333402B3401487F9DB045E7FFD9A2
:10FF8C00420000803F2F31413A256C642031423AC7
:10FF9C00256C642032413A256C642032423A256C3F
:10FFAC00642033413A256C642033423A256C64203A
:10FFBC0053413A25752057493A257521002F315266
:10FFCC003A256C642032523A256C642033523A251F
:10FFDC006C642053413A257521003031323334356D
:10FFEC003637383961626364656600253034780DC4
:03FFFC000A0000F8
:020000040020DA
:100000000100FF0FFF0FFF0FFF0FFF0FFF0FFF0F8D
:020000040030CA
:0C0000008CFF7CFF9FFFFFFFFEFFFFFF57
:00000001FF
