:020000040000FA
:0400000082316B2AB4
:100008007E1480312000111C65280D3021009D00D0
:100018002000DC01DF0A0319E00A5E08A1005D0880
:10002800A000A009A1092008960021089700003027
:1000380060023D3003195F02031C25285808031984
:10004800272821009D142000111006280D302100BA
:100058009D0020000030DC0160023D3003195F0282
:10006800031C3B280A30DD070318DE0A4628003047
:1000780060023C3003195F02031846280130DD0294
:100088000030DE3B5E08A1005D08A000A009A109C0
:1000980020089600210897003D3059020318562879
:1000A80021009D14863161268031DF01DF0AE001DD
:1000B8002100D001D1012000D80127009912200089
:1000C80011102700991E73282A2820001430E10AED
:1000D8006106031D71281030E10027009310931C5E
:1000E8002F2A69285C08031D88281D3021009D00DF
:1000F8003908B3003808B2001C08B9001B08B8005A
:100108002000DC01DC0A98285C0B9B2815302100B4
:100118009D003B08B5003A08B4001C08BB001B084A
:10012800BA0002302000DC0021009D14252A02308C
:100138005C06031D252A0D3021009D003D08B700EF
:100148003C08B6001C08BD001B08BC00033020009A
:10015800DC0058080319C029AA012A35B23E8600D6
:1001680087012A35B83E84008501403F0002A0007F
:100178000131413F003BA1002008A2002108A30053
:100188000030A31BFF30A400A5002408A500230805
:10019800A4002208A300A20125082100C500200010
:1001A80024082100C400200023082100C3002000E7
:1001B80022082100C20020002A0809070907383E42
:1001C800860001308700403F2100C207413FC33D00
:1001D800423FC43D433FC53D42082000A0002100E6
:1001E80043082000A100210044082000A2002100AB
:1001F80045082000A3000830A400A337A20CA10CD6
:10020800A00CA40B0129210042082000A500210010
:1002180043082000A600210044082000A700210070
:1002280045082000A8002008A5022108A63B2208AE
:10023800A73B2308A83B2A0809070907383E860078
:10024800013087002508C03F2608C13F2708C23F64
:100258002808C33F2A0809070907383E8600403F97
:100268002100C600413FC700423FC800433FC900C4
:1002780002302000A0002100C937C80CC70CC60CEA
:100288002000A00B3F2921004908F4004808F3008A
:100298004708F2004608F1004908F8004808F70046
:1002A8004708F6004608F5008E316E26803174083E
:1002B800C1007308C0007208BF007108BE000C308E
:1002C800C136C00CBF0CBE0C890B642920002A085B
:1002D800090709072C3E86000130870021003E08E7
:1002E800810741313F08813D41314008813D41311D
:1002F8004108813D20000330AA0A2A02031CB128C4
:10030800D60A0319D70AB83056060B300319570610
:10031800031D252AA9012908090709072C3E86007B
:1003280001308700403FA000413FA100423FA200AA
:10033800433FA300290809070907203E8600200833
:10034800C03F2108C13F2208C23F2308C33F2908F4
:10035800090709072C3E86000030C03FC13FC23F55
:10036800C33F0330A90A2902031C8F29D601D701EC
:1003780001302100D400252AAB012B35B83E860078
:100388008701403FF100413FF2000030F107FE30A5
:10039800F23D2B08DB3E86008830A10001082D3C89
:1003A800A000031CA1035F0784002108603D8500AD
:1003B8000008F3008F319927803120002B082B0784
:1003C8002B07A93E86008701710881074131720811
:1003D800813D41317308813D2B35B83E8600870148
:1003E800403FF100413FF2000030F107FE30F23D9E
:1003F8002B08DB3E86008830A10001082C3CA000B9
:10040800031CA1035F0784002108603D85000008E4
:10041800F3008F319927803120002B082B072B07F9
:10042800A03E860087017108810741317208813D2D
:1004380041317308813D0330AB0A2B02031CC129EB
:10044800D90A2700991E2D2A01302000DD0200302C
:10045800DE3B200011132000111B7628111E4C2AA8
:100468002100111E4C2A23009E1C4C2A20005A08E9
:100478008C3E860021308701873D010823009A00C1
:100488002000DA0A5A085B06031D4C2A21001112C3
:100498002000921C692A01302100CA070030CB3D98
:1004A800CC3DCD3DD00A0319D10A22005F085E0475
:1004B8005D045C040319662A0130DC020030DD3B70
:1004C800DE3BDF3B200092104C2A7E10090082316F
:1004D8006D2A5C30DD000A30DE000130DF001030AC
:1004E800E001E10021001430DB01DC002830DD00F0
:1004F8008C308400213085006430FE00FF018E318D
:1005080017268231FD012000A030D601D701D8017D
:10051800D901DA01DB01DC018400003085003730C5
:10052800FE00FF018E311726823120308400013011
:1005380085004230FE00FF018E31172682317E1081
:100548002000A62A8F3147278231003051024B30D4
:1005580003195002031CF82A4B30D000C430D101D3
:100568002000DD000930DE000130D80021005408E9
:100578000319F82A8C302300A0002130A100EA30AA
:10058800A2008830A300220023082300A70022002D
:1005980022082300A600220021082300A50022002B
:1005A80020082300A4002430860001308700403F43
:1005B800A800413FA900423FAA00433FAB000830D2
:1005C800203E8600403FAC00413FAD00423FAE00B8
:1005D800433FAF00B830B0000B30B1000124823186
:1005E8002100D601D60AD401550803199F2B8C3057
:1005F8002300A0002130A1008A30A2008830A30087
:10060800220053082300A700220052082300A60056
:10061800220051082300A500220050082300A4004E
:10062800220047082300AB00220046082300AA0046
:10063800220045082300A900220044082300A8003E
:100648005430860001308700403FAC00413FAD0088
:10065800423FAE00433FAF0048308600403FB00005
:10066800413FB100423FB200433FB30058308600DB
:10067800403FB400413FB500423FB600433FB7009A
:100688000830443E8600403FB800413FB900423F31
:10069800BA00433FBB00210053082300BD002100DE
:1006A80052082300BC002000610803392300BE0063
:1006B800BF01012482312200D001D101D201D3012E
:1006C800C401C501C601C701D401D501D601D701AE
:1006D800C801C901CA01CB01D801D901DA01DB017E
:1006E800CC01CD01CE01CF012100D201D3012000E0
:1006F800E1188C2B21001430DB01DC002830DD00F0
:100708002000611C9B2B28302100DC0014309A2B20
:1007180005302100DB001930DC002D30DD00200021
:10072800611C9B2B2D302100DC001930DD002100DD
:10073800D501D601D60A23009D1CA42B1D121D1617
:1007480020005B080319B02B23009E1CB02B21004E
:10075800111AB02B2000DB01210056080319A92A21
:100768008C302000AC002130AD008E31382682312B
:100778002D082100DA0020002C082100D9002000D3
:100788008C30AC01AD01AE002130AF00210059081A
:100798002000B0008E314E2682312D082100D8006D
:1007A80020002C082100D7008C302000D4002130F4
:1007B800D50021005908200054072300A00021007B
:1007C8005A082000553D2300A1001830A2008930A6
:1007D800A300210058082300A50021005708230082
:1007E800A4000124823121005908063E2000DB00C4
:1007F800DA015A268231D601A92AA4302000CB007A
:10080800230023082000C300230022082000C20080
:100818002300A20A0319A30A2000420884004308FF
:1008280085000008D30053080319442E25305306C9
:1008380003192B2C2300200886002108870020009C
:10084800530881002300A00A0319A10A042CD0012F
:10085800D101D201352C200052152300A20A031918
:10086800A30A230022088400230885000008303AE0
:1008780003192F2C3F2C2208840023088500000828
:100888004B268231031C7E2CD001D1010A30AC00EA
:10089800AD015108AF005008AE008E3123268231D9
:1008A8002D08D1002C08D00023002208840023083A
:1008B80085000008D03E2000C200FF300318003039
:1008C800C3004208D0074308D13D2300A20A0319F8
:1008D800A30A220884002308850000084B268231D9
:1008E800031C7E2C4A2C52167E2CD2179A2CC03010
:1008F800D2049A2C230023082000C30023002208D6
:100908002000C2002300A20A0319A30A20004208FB
:100918008400430885000008D3008400793004026D
:100928000318042C87310435003E82005208C03970
:10093800031DD22C521EAF2C4B08860001308700B5
:10094800403FCC00413FCD00423FCE00433FCF0067
:100958000430CB07C22C4B08860001308700403F8B
:10096800C200413FC3004208CC004308CD00890DB6
:10097800893B8909CE00CF00CB0ACB0ACF1F4C2D6B
:100988000330D204CC09CD09CE09CF09CC0A03190A
:10099800CD0A0319CE0A0319CF0A4C2D521EE32C97
:1009A8004B08860001308700403FCC00413FCD0016
:1009B800423FCE00433FCF000430CB074C2D4B08BD
:1009C800860001308700403FC200413FC300420813
:1009D800CC004308CD00CE01CF01CB0ACB0A4C2D69
:1009E800D301D30A5308C200C230C301C235C30DB4
:1009F800C235C30D420784008830433D8500003F5F
:100A0800C400013FC500023FC600033FC7004F02B4
:100A1800031D182D46084E02031D182D45084D02CA
:100A2800031D182D44084C02031C572D0A30D30A05
:100A380053060319572DF62CD301D30A5308C200C5
:100A48006A30C301C235C30DC235C30D42078400E5
:100A58008830433D8500003FC400013FC500023F88
:100A6800C600033FC7004F02031D442D46084E022F
:100A7800031D442D45084D02031D442D44084C0216
:100A8800031C572D0830D30A53060319572D222D5E
:100A98005208C0390319F42C803A0319202D403A22
:100AA8000319F42C572D500851040319632D5208CB
:100AB80003390319632DFF30D007031CD1035108F4
:100AC800803A803C031D6A2D500853020318722D8A
:100AD80020005308D002031CD103752D2000D0013B
:100AE800D101521D9A2D520803390319852D23006F
:100AF80020088600210887002D308100A00A0319EC
:100B0800A10A2000500851040319BF2D2300200812
:100B180086002108870030308100A00A0319A10A45
:100B2800FF302000D007031CD103862D5008510444
:100B38000319B12D230020088600210887002030E2
:100B48008100A00A0319A10AFF302000D007031C66
:100B5800D10350085104031D9E2D5208033903196F
:100B6800BF2D230020088600210887002D30810032
:100B7800A00A0319A10A20005308C900CA012E2E91
:100B88000A30B900BA01BB01BC014A08850049080E
:100B98008400C2308435850D8435850D84078830FE
:100BA800853D003FAC00013FAD00023FAE00033F72
:100BB800AF004F08B3004E08B2004D08B1004C0812
:100BC800B0008F31082782312F08C0002E08BF00DF
:100BD8002D08BE002C08BD008E31932682313908BD
:100BE800303E212E4F08B3004E08B2004D08B10028
:100BF8004C08B0004A088500490884006A308435EA
:100C0800850D8435850D84078830853D003FAC000F
:100C1800013FAD00023FAE00033FAF008F31082710
:100C280082312C08C8000F30C8054808073E8400E8
:100C380089300318013E85000008D30023002008EE
:100C48008600210887002000530881002300A00A9D
:100C58000319A10AFF302000C907031CCA03490F62
:100C6800382E4A0A0319042C5208C0390319C42D16
:100C7800803A0319F62D403A0319C42D222E222E4C
:100C88002300200886002108870081010800200031
:100C9800AD003A30AC012D020318582E30302D0229
:100CA800031C582EAC01AC0A2C0C0800AC01AC0A91
:100CB800AD018E31C9261116080021005508031D03
:100CC800EA2E2908F1002A08F2002B08F300003068
:100CD800F31BFF30F40071082200D0077208D13DE1
:100CE8007308D23D7408D33D21002008F100210883
:100CF800F2002208F3000030F31BFF30F400710803
:100D08002200C4077208C53D7308C63D7408C73D74
:100D180021002C08F1002D08F2002E08F300003005
:100D2800F31BFF30F40071082200D4077208D53D88
:100D38007308D63D7408D73D21002308F100240824
:100D4800F2002508F3000030F31BFF30F4007108AF
:100D58002200C8077208C93D7308CA3D7408CB3D14
:100D680021002F08F1003008F2003108F3000030AC
:100D7800F31BFF30F40071082200D8077208D93D30
:100D88007308DA3D7408DB3D21002608F1002708C6
:100D9800F2002808F3000030F31BFF30F40071085C
:100DA8002200CC077208CD3D7308CE3D7408CF3DB4
:100DB800200059082100D2070318D30A3230FD0A4F
:100DC8007D02031CEA2ED501D50AFD01A901AA015D
:100DD800AB01A001A101A201AC01AD01AE01A301CB
:100DE800A401A501AF01B001B101A601A701A801A5
:060DF8002000D9010800F3
:100E00008631442E8431042C8431042C8431042C0A
:100E10008431042C8431042C8431042C8431042C3E
:100E20008431042C8431042C8431042C8431042C2E
:100E30008431042C8431042C8431042C8431042C1E
:100E40008431042C8431042C8431042C8431042C0E
:100E50008431042C8431042C8431042C8431042CFE
:100E60008431042C8431042C8431042C8431042CEE
:100E70008431042C8431042C8431042C8431042CDE
:100E80008431042C8431042C8431042C8431042CCE
:100E90008431042C8431042C8431042C8431042CBE
:100EA0008431042C8431042C8431042C8431042CAE
:100EB0008431042C8431042C8431042C8431042C9E
:100EC0008431042C8431042C8431042C8431042C8E
:100ED0008431042C8431042C8431042C8431042C7E
:100EE0008431042C8431042C8431042C8431042C6E
:100EF0008431042C8431042C8431042C8431042C5E
:100F00008431042C8431042C8431042C8431042C4D
:100F10008431042C8431042C8431042C8431042C3D
:100F20008431042C8431042C8431042C8431042C2D
:100F30008431042C8431042C8431042C8431042C1D
:100F40008431042C8431042C8431042C8431042C0D
:100F50008431042C8431042C8431042C8431042CFD
:100F60008431042C8431042C8431042C8431042CED
:100F70008431042C8431042C8431042C8431042CDD
:100F80008431042C8431042C8431042C8431042CCD
:100F900084319A2C8431042C8431042C8431042C27
:100FA0008431042C84319A2C8431042C8431042C17
:100FB0008431772C8431042C8431042C8431042C2A
:100FC0008431042C8431042C8431042C8431042C8D
:100FD0008431042C84317B2C8431042C8431042C06
:100FE0008431792C003406340D34133419341F3411
:100FF00025342A342E343234363439343B343D34BB
:101000003E343E343E343D343B343934363432346D
:101010002E342A3425341F34193413340D34063455
:101020000034FA34F334ED34E734E134DB34D634CD
:10103000D234CE34CA34C734C534C334C234C234D3
:10104000C234C334C534C734CA34CE34D234D634AF
:10105000DB34E134E734ED34F334FA34003406346D
:101060000D34133419341F3425342A342E343234D9
:10107000363439343B343D343E343E343E343D34F2
:101080003B343934363432342E342A3425341F3448
:10109000193413340D3406340034FA34F334ED3497
:1010A000E734E134DB34D634D234CE34CA34C734F6
:1010B000C534C334C234C234C234C334C534C73473
:1010C000CA34CE34D234D634DB34E134E734ED34B0
:1010D000F334FA3401340034003400341034003472
:1010E000003400340034013400340034003410344F
:1010F000003400340034003401340034003400344F
:10110000103400340034003400340134003400342E
:10111000003410342F34313441343A3425346C34B3
:1011200064342034313442343A3425346C346434F9
:101130002034323441343A3425346C34643420342D
:10114000323442343A3425346C3464342034333409
:1011500041343A3425346C346434203433344234EA
:101160003A3425346C3464342034533441343A34C2
:10117000253475342034573449343A3425347534A1
:101180002134003401340034003400340A34003493
:10119000003400346434003400340034E834033460
:1011A000003400341034273400340034A034863442
:1011B00001340034403442340F34003480349634E7
:1011C000983400340034E134F53405340034CA3442
:1011D0009A343B342F34313452343A3425346C341D
:1011E00064342034323452343A3425346C34643428
:1011F0002034333452343A3425346C34643420345B
:10120000533441343A342534753421340034303485
:10121000313432343334343435343634373438348A
:101220003934613462346334643465346634003490
:0E12300025343034343478340D340A3400342C
:101C2E006400013080010131FE020030FF3B7F086D
:101C3E007E0403190034182EB001B1012C1C2B2E7A
:101C4E002E08B0072F08B13DAE35AF0DAD36AC0C3A
:101C5E002C082D04031D252E3108AD003008AC00D4
:101C6E0008002D08AF002C08AE002E0886002F08A5
:101C7E00870001080319472EAE0A0319AF0A3C2E3E
:101C8E002C082E02AC002D082F3BAD000800B4012D
:101C9E0030083402031808003408B100B2012E07D0
:101CAE00860032082F3D87000108AC060830B300CD
:101CBE002C1C682E0130AD36AC0CAC06A030AD0637
:101CCE006A2EAD36AC0CB30B5F2EB40A4F2EF90153
:101CDE00FA01FB01FC01711C7C2E7508F9077608D0
:101CEE00FA3D7708FB3D7808FC3DF535F60DF70D0E
:101CFE00F80DF436F30CF20CF10C74087304720444
:101D0E007104031D722E7C08F4007B08F3007A0820
:101D1E00F2007908F10008003C083B043A0439044B
:101D2E000319C02EC101C10ABC1BA22EB935BA0DB2
:101D3E00BB0DBC0D9A2E3C084002031DB02E3B0875
:101D4E003F02031DB02E3A083E02031DB02E390885
:101D5E003D02031CBA2E3908BD023A08BE3B3B08B1
:101D6E00BF3B3C08C03BBC36BB0CBA0CB90CC10B1C
:101D7E00A22E4008BC003F08BB003E08BA003D083A
:101D8E00B900080021004D082000B90021004C08C0
:101D9E002000B80021004B082000B70021004A089F
:101DAE002000B60020003608AE003708AF00380815
:101DBE00B0003908B1002C08B2002D08B300B401F0
:101DCE00B5013208AE073308AF3D3408B03D3508D3
:101DDE00B13D310821004D02031D052F20003008B2
:101DEE0021004C02031D052F20002F0821004B025D
:101DFE00031D052F20002E0821004A02031808009B
:101E0E00D92EB401B501B601B7012F082E042D0449
:101E1E002C0403193E2FB801B80AAF1B1B2FAC358B
:101E2E00AD0DAE0DAF0D132FB435B50DB60DB70DFF
:101E3E002F083302031D2D2F2E083202031D2D2FC6
:101E4E002D083102031D2D2F2C083002031C382FB4
:101E5E002C08B0022D08B13B2E08B23B2F08B33B25
:101E6E003414AF36AE0CAD0CAC0CB80B1B2F3708C0
:101E7E00AF003608AE003508AD003408AC000800DF
:101E8E0022008C018E01123021008C002A308E002F
:101E9E00103023008C001F308E0024008C01203067
:101EAE008E00210095132700980002309100053016
:101EBE003C00A40014303D009000703021009900C9
:101ECE0090302200980080309900A03021009E00B2
:101EDE000D309D00D2302A009100083023009F0063
:101EEE0090309D0024309E0044309B009C012000C9
:101EFE0099015E08AD005D08AC00AC09AD092C0877
:101F0E0096002D089700013098007C30280096002E
:101F1E000730970021001117111492148B150B170F
:101F2E008B170800F401F501F601F601F501031017
:101F3E00F001F21FA82FF209F109F10A0319F20AB2
:101F4E00F00AF31FAD2FF309F30AF00A73087118A4
:101F5E00F607F60CF40CF118F607F60CF40C7119E2
:101F6E00F607F60CF40CF119F607F60CF40C711AD0
:101F7E00F607F60CF40CF11AF607F60CF40C711BBE
:101F8E00F607F60CF40CF11BF607F60CF40CF50143
:101F9E007218F607F60CF50CF218F607F60CF50C9F
:101FAE007219F607F60CF50CF219F607F60CF50C8D
:101FBE00721AF607F60CF50CF21AF607F60CF50C7B
:101FCE00721BF607F60CF50CF21BF607F60CF50C69
:101FDE00701CF92FF609F509F409F40A0319F50A2C
:101FEE000319F60A7408F1007508F2007608F3007A
:021FFE000800D9
:020000040001F9
:04000E002439FF3F53
:00000001FF
