:0400000016EF05F002
:100008004D82E1CF0BF0E2CF0CF0D9CF0DF0DACF73
:100018000EF0F3CF0FF0F4CF10F013D00F015F6B99
:100028004A5003E13C0E495C02E3425001E0608023
:10003800494A4A2A0101EB1DCD6EEC1DCE6E0E0118
:10004800CE910E01CEB1EAD723D04A5003E13D0E3E
:10005800495C04E30101EB4BEC2B0AD04A5008E160
:100068003C0E495C05E2050E0101EB5F000EEC5BFE
:100078000F015F6B60800101EB1DCD6EEC1DCE6E34
:10008800426A4A6A010E496EA36BA46B0F01129172
:100098000F0112B1DAD777EF04F063CFF7F064CF2E
:1000A800F8F00001D890FE0EF8270F015F5156E1D5
:1000B800010E5F6F3CC024F13DC025F16080F7C0A0
:1000C8003CF0F8C03DF03CC001F03DC002F03CC03F
:1000D80003F03DC004F003500102F3CF05F0F4CF64
:1000E80006F004500202F3CF07F0F4CF08F00350F3
:1000F8000202F3500626F4500722000E082204508C
:100108000102F3500626F4500722000E082202AE20
:1001180004D00350075E0450085A04AE04D00150BE
:10012800075E0250085A05500101762706507723CA
:1001380007507823085079233CC001F03DC002F0F5
:10014800000E02BEFF0E036E046E015066270250B9
:1001580067230350682304506923C3D35F0552E122
:10016800020E5F6F3EC026F13FC027F16080F7C0E6
:100178003EF0F8C03FF020EE3EF010EE3EF0E650C4
:10018800DE02F3CF01F0F4CF02F0E550DF02F3CF47
:1001980003F0F4CF04F0E650DD02F3500226F450E9
:1001A8000322000E0422E550DE02F3500226F4502A
:1001B8000322000E0422DDAE04D0E650035EE550B3
:1001C800045AE4AE04D0DE50035EDD50045A0150F8
:1001D80001017227025073230350742304507523BE
:1001E8003EC001F03FC002F0000E02BEFF0E036EDB
:1001F800046E0150622702506323035064230450A5
:1002080065236FD3020E5F1901E06BD35F6B40C0AB
:1002180028F141C029F1F7C040F0F8C041F020EEC4
:1002280040F010EE40F0E650DE02F3CF01F0F4CFDC
:1002380002F0E550DF02F3CF03F0F4CF04F0E6500C
:10024800DD02F3500226F4500322000E0422E5508A
:10025800DE02F3500226F4500322000E0422DDAE23
:1002680004D0E650035EE550045AE4AE04D0DE50F4
:10027800035EDD50045A015001016E2702506F23BE
:10028800035070230450712340C001F041C002F0B4
:10029800000E02BEFF0E036E046E01505E27025070
:1002A8005F230350602304506123425001E121D1B0
:1002B800126A1250020D240EF324D96E010EF42096
:1002C800DA6EDECF01F0DDCF02F01250020DF350EE
:1002D8003C0FD96EDA6ADECF03F0DDCF04F00150AF
:1002E800035C056E02500458066E076A06BE0706D0
:1002F8000750086E07C008F006C007F005C006F0F2
:10030800056A05C02EF106C02FF107C030F108C0FC
:1003180031F11250040D0C0EF324D96E010EF420A5
:10032800DA6EDE502E27DE502F23DE503023DD50CC
:1003380031232FC101F030C102F031C103F0046A4A
:1003480003BE046801502E5D056E02502F59066EDB
:1003580003503059076E04503159086E1250040D7D
:100368000C0EF324D96E010EF420DA6E05C0DEFF00
:1003780006C0DEFF07C0DEFF08C0DEFF020E016E0A
:100388001250040D0C0EF324D96E010EF420DA6E0F
:10039800DECF02F0DECF03F0DECF04F0DECF05F0D3
:1003A800016601D007D00534053204320332023227
:1003B800012EF6D702C032F103C033F104C034F184
:1003C80005C035F1010132513203F3CF01F0F4CF0A
:1003D80002F0036A046A3303F3500226F45003223E
:1003E800000E042233513203F3500226F450032244
:1003F800000E042232513403F3500326F450042231
:1004080033513303F3500326F4500422345132039A
:10041800F3500326F450042235513203F3500426D6
:1004280033513403F350042634513303F350042674
:1004380035513203F350042601C02AF102C02BF1D2
:1004480003C02CF104C02DF10C0E016ED8902D3391
:100458002C332B332A33012EF9D71250040D000EFA
:10046800F324D96E010EF420DA6E2A51DE262B51C0
:10047800DE222C51DE222D51DE22122A020E1264B7
:1004880018D79D4B9E2BB80E9D1903E10B0E9E1994
:10049800D8A427D2116A1150040D000EF324D96E86
:1004A800010EF420DA6E1150040D000EF324E16EF3
:1004B800020EF420E26EDECFE6FFDECFE6FFDECFEF
:1004C800E6FFDECFE6FF1150040D000EF324D96ECF
:1004D800010EF420DA6EDE6ADE6ADE6ADD6A112A4F
:1004E800020E1164D8D701019D6B9E6B010EA96F96
:1004F800F8D14350495C016E000E4A58026ED890FC
:1005080001360236760E0124D96E030E0220DA6E09
:10051800DECFF9F0DDCFFAF0F9C001F0FAC002F051
:10052800F9C003F0FAC004F003500102F3CF05F05C
:10053800F4CF06F004500202F3CF07F0F4CF08F02E
:1005480003500202F3500626F4500722000E082238
:1005580004500102F3500626F4500722000E082228
:1005680002AE04D00350075E0450085A04AE04D00B
:100578000150075E0250085A05507A2706507B231F
:1005880007507C2308507D23F9C001F0FAC002F01F
:10059800000E02BEFF0E036E046E01506A27025061
:1005A8006B2303506C2304506D233CC001F03DC005
:1005B80002F04350495C036E000E4A58046ED8900E
:1005C80003360436760E0324D96E030E0420DA6E41
:1005D800DECF05F0DDCF06F005500102F3CF07F0BE
:1005E800F4CF08F006500202F3CF09F0F4CF0AF076
:1005F80005500202F3500826F4500922000E0A2280
:1006080006500102F3500826F4500922000E0A226F
:1006180002AE04D00550095E06500A5A06AE04D050
:100628000150095E02500A5A07505A2708505B23A6
:1006380009505C230A505D233CC001F03DC002F024
:100648004350495C036E000E4A58046ED890033636
:100658000436740E0324D96E030E0420DA6EDECF3E
:1006680005F0DDCF06F005500102F3CF07F0F4CF17
:1006780008F006500202F3CF09F0F4CF0AF0055053
:100688000202F3500826F4500922000E0A220650EE
:100698000102F3500826F4500922000E0A2202AE85
:1006A80004D00550095E06500A5A06AE04D001501F
:1006B800095E02500A5A0750562708505723095016
:1006C80058230A50592320EE3EF04C50495C016EE5
:1006D800000E4A58026ED89001360236760E012472
:1006E800E16E030E0220E26EE650DE02F3CF03F065
:1006F800F4CF04F0E550DF02F3CF05F0F4CF06F0B5
:10070800E650DD02F3500426F4500522000E0622BE
:10071800E550DE02F3500426F4500522000E0622AE
:10072800DDAE04D0E650055EE550065AE4AE04D0CE
:10073800DE50055EDD50065A0350522704505323FD
:10074800055054230650552320EE3EF04C50495C8A
:10075800016E000E4A58026ED89001360236740EA9
:100768000124E16E030E0220E26EE650DE02F3CFB2
:1007780003F0F4CF04F0E550DF02F3CF05F0F4CF37
:1007880006F0E650DD02F3500426F4500522000E70
:100798000622E550DE02F3500426F4500522000E2E
:1007A8000622DDAE04D0E650055EE550065AE4AEFA
:1007B80004D0DE50055EDD50065A03504E27045023
:1007C8004F23055050230650512320EE40F04B5044
:1007D800495C016E000E4A58026ED8900136023606
:1007E800760E0124E16E030E0220E26EE650DE0270
:1007F800F3CF03F0F4CF04F0E550DF02F3CF05F0B8
:10080800F4CF06F0E650DD02F3500426F45005223A
:10081800000E0622E550DE02F3500426F4500522AD
:10082800000E0622DDAE04D0E650055EE550065AFD
:10083800E4AE04D0DE50055EDD50065A03504A2768
:1008480004504B2305504C2306504D2320EE40F016
:100858004B50495C016E000E4A58026ED890013622
:100868000236740E0124E16E030E0220E26EE65099
:10087800DE02F3CF03F0F4CF04F0E550DF02F3CF4C
:1008880005F0F4CF06F0E650DD02F3500426F450EC
:100898000522000E0622E550DE02F3500426F4502D
:1008A8000522000E0622DDAE04D0E650055EE550B6
:1008B800065AE4AE04D0DE50055EDD50065A0350F9
:1008C80046270450472305504823065049233C0E29
:1008D80049184A1003E153EC20F003D00001F54B0E
:1008E800F62B0E01CB910E01CBB151EF00F02DD0BC
:1008F80099CE48F02F0E481804E10001FB6BFC6B01
:10090800476A475005E0040E476401D0486A472A01
:100918002B0E0001FB25D96E040EFC21DA6E48C0AF
:10092800DFFFFB4BFC2BD00EFB1906E1070EFC1971
:1009380003E1FB07D8A0FC07210E481806E1FBC01D
:10094800A7F1FCC0A8F1010E476E0E01CDBFD0D7AC
:100958002FD099CF48F0030E01017E25016E000EBD
:100968007F21026E000E8021036E000E8121046E2D
:100978000001F151015CF2510258F3510358F4514E
:10098800045801E2466A320E461801E14606A40EF2
:100998004624D96EDA6A020EDA2248C0DFFF462AF8
:1009A800F1C07EF1F2C07FF1F3C080F1F4C081F1B3
:1009B8000E01CDBBCED70DD0400E4424D96EDA6AD5
:1009C800020EDA22DF509A6E442A4550441801E19B
:1009D800C599CDB9C5A916D0EFD70001F12B000EE6
:1009E800F223F323F4230101A34BA42B8251831197
:1009F8008411851105E08207000E835B845B855BAB
:100A08000E01CE97CEB7E9D710C0F4FF0FC0F3FFA1
:100A18000EC0DAFF0DC0D9FF0CC0E2FF0BC0E1FF2A
:100A28004D921100818E19EF05F064EF29F030EC3A
:100A380027F0849C849E0AEC17F0990EC46FFF0E71
:100A4800C56FD7EC0DF004012A6B0001956B966B0E
:100A5800340E976F430E986FD80E256E0F0E266EC4
:100A6800490E276E400E286E04012A51060DF3CF59
:100A780013F0F4CF14F0000E14BEFF0E156E166EB0
:100A8800010EABEC25F013C021F014C022F015C004
:100A980023F016C024F07EEC1CF021C091F022C097
:100AA80092F023C093F024C094F05FEC22F091C040
:100AB80000F492C001F493C002F494C003F400C49B
:100AC800C4F001C4C5F002C4C6F003C4C7F021ECE9
:100AD8001BF0C4C004F4C5C005F4C6C006F4C7C002
:100AE80007F4256A266ACA0E276E420E286E04C4C9
:100AF80021F005C422F006C423F007C424F07EECDC
:100B08001CF021C0AAF022C0ABF023C0ACF024C076
:100B1800ADF015EC29F004012A51020D000EF32462
:100B2800D96E030EF420DA6EAAC0DEFFABC0DDFF7B
:100B38002A2B770E2A6589D7010E146EF40E136ED0
:100B4800EBEC2BF0848C848E0F015F6B20D01107A7
:100B580011290001ED6FEDB117D0849C0401102B11
:100B680010050001ED6FEE6B9A0EED25D96E010EA2
:100B7800EE21DA6EDF5001E0849EC80E0101826F1B
:100B8800836B846B856B03D0848C848EF6D70101CC
:100B9800825183118411851103E104011151D7E1B8
:100BA8000101A45104E14B0EA35D01E282D0000EC5
:100BB800A46F4B0EA36F090EEC6FC40EEB6F010E02
:100BC800426EA95176E00401286B296B29516CE12A
:100BD800030E285D69E20001956B800E966F3B0E4F
:100BE800976F450E986F000EED6F020EEE6FD8905E
:100BF80004012835D96E2935DA6ED890D936DA3617
:100C08000001ED51D926EE51DA22DECF13F0DECF06
:100C180014F0DECF15F0DECF16F0000EABEC25F0A9
:100C280013C091F014C092F015C093F016C094F060
:100C38005FEC22F091C0AAF092C0ABF093C0ACF088
:100C480094C0ADF054EC23F0AAC021F0ABC022F060
:100C5800ACC023F0ADC024F09A0E256E990E266E16
:100C6800276E3E0E286E7EEC1CF0AD0E0001EF6F75
:100C7800010EF06FD89004012835D96E2935DA6E47
:100C8800D890D936DA360001EF51D926F051DA2258
:100C980021C0DEFF22C0DEFF23C0DEFF24C0DEFF4E
:100CA8000401284B292B92D7010E01019A6FAC6FD2
:100CB800A96BAA5102E116EF0BF0030EAB6F30C21D
:100CC800C7F031C2C8F032C2C9F033C2CAF042C15B
:100CD800CBF043C1CCF044C1CDF045C1CEF0A5C1A5
:100CE800CFF0A6C1D0F00001D16BD26B38EC24F064
:100CF800C7C096F1C8C097F1C9C098F1CAC099F1A8
:100D0800A5C1CFF0A6C1D0F0D16BD26B3EC1CBF05C
:100D18003FC1CCF040C1CDF041C1CEF02CC2C7F0EC
:100D28002DC2C8F02EC2C9F02FC2CAF038EC24F088
:100D3800C7C014F4C8C015F4C9C016F4CAC017F463
:100D480014C421F015C422F016C423F017C424F0EB
:100D58003D0E256E0A0E266E970E276E3E0E286EE5
:100D68007EEC1CF021C0ADF122C0AEF123C0AFF182
:100D780024C0B0F1A5C1CFF0A6C1D0F00001D16B5D
:100D8800D26B3AC1CBF03BC1CCF03CC1CDF03DC1F8
:100D9800CEF028C2C7F029C2C8F02AC2C9F02BC2B7
:100DA800CAF038EC24F0C7C014F4C8C015F4C9C0A0
:100DB80016F4CAC017F414C421F015C422F016C4DE
:100DC80023F017C424F03D0E256E0A0E266E970EEA
:100DD800276E3E0E286E7EEC1CF021C0B1F122C0B9
:100DE800B2F123C0B3F124C0B4F1A5C1CFF0A6C1BC
:100DF800D0F00001D16BD26B36C1CBF037C1CCF04B
:100E080038C1CDF039C1CEF024C2C7F025C2C8F030
:100E180026C2C9F027C2CAF038EC24F0C7C014F4BF
:100E2800C8C015F4C9C016F4CAC017F414C421F018
:100E380015C422F016C423F017C424F03D0E256E05
:100E48000A0E266E970E276E3E0E286E7EEC1CF05C
:100E580021C0B5F122C0B6F123C0B7F124C0B8F162
:100E6800A5C1D0F0A6C1D1F00001D26BD36B3EC1B1
:100E7800CCF03FC1CDF040C1CEF041C1CFF042C16E
:100E8800C8F043C1C9F044C1CAF045C1CBF01CC287
:100E9800C4F01DC2C5F01EC2C6F01FC2C7F0FEECEA
:100EA80024F0C4C018F4C5C019F4C6C01AF4C7C0E9
:100EB8001BF4A5C1D0F0A6C1D1F0D26BD36B3EC153
:100EC800CCF03FC1CDF040C1CEF041C1CFF042C11E
:100ED800C8F043C1C9F044C1CAF045C1CBF020C233
:100EE800C4F021C2C5F022C2C6F023C2C7F0FEEC8E
:100EF80024F0C4C01CF4C5C01DF4C6C01EF4C7C08D
:100F08001FF4EAC225F0EBC226F0ECC227F0EDC2CE
:100F180028F018C421F019C422F01AC423F01BC405
:100F280024F07EEC1CF021C075F022C076F023C0BE
:100F380077F024C078F0F6C225F0F7C226F0F8C2A0
:100F480027F0F9C228F01CC421F01DC422F01EC4E9
:100F580023F01FC424F07EEC1CF021C071F022C0E5
:100F680072F023C073F024C074F014EC1FF071C049
:100F780020F472C021F473C022F474C023F420C496
:100F880021F021C422F022C423F023C424F03D0E12
:100F9800256E0A0E266E970E276E3E0E286E7EEC84
:100FA8001CF021C018F122C019F123C01AF124C085
:100FB8001BF1A5C1D0F0A6C1D1F00001D26BD36B53
:100FC8003AC1CCF03BC1CDF03CC1CEF03DC1CFF031
:100FD80042C1C8F043C1C9F044C1CAF045C1CBF011
:100FE80014C2C4F015C2C5F016C2C6F017C2C7F0C5
:100FF800FEEC24F0C4C018F4C5C019F4C6C01AF435
:10100800C7C01BF4A5C1D0F0A6C1D1F0D26BD36B79
:101018003AC1CCF03BC1CDF03CC1CEF03DC1CFF0E0
:1010280042C1C8F043C1C9F044C1CAF045C1CBF0C0
:1010380018C2C4F019C2C5F01AC2C6F01BC2C7F064
:10104800FEEC24F0C4C01CF4C5C01DF4C6C01EF4D8
:10105800C7C01FF4E6C225F0E7C226F0E8C227F0B1
:10106800E9C228F018C421F019C422F01AC423F0E8
:101078001BC424F07EEC1CF021C075F022C076F071
:1010880023C077F024C078F0F2C225F0F3C226F02E
:10109800F4C227F0F5C228F01CC421F01DC422F0C8
:1010A8001EC423F01FC424F07EEC1CF021C071F094
:1010B80022C072F023C073F024C074F014EC1FF047
:1010C80071C020F472C021F473C022F474C023F4F8
:1010D80020C421F021C422F022C423F023C424F028
:1010E8003D0E256E0A0E266E970E276E3E0E286E52
:1010F8007EEC1CF021C01CF122C01DF123C01EF1A2
:1011080024C01FF1A5C1D0F0A6C1D1F00001D26B57
:10111800D36B36C1CCF037C1CDF038C1CEF039C170
:10112800CFF042C1C8F043C1C9F044C1CAF045C1BB
:10113800CBF00CC2C4F00DC2C5F00EC2C6F00FC28F
:10114800C7F0FEEC24F0C4C018F4C5C019F4C6C03A
:101158001AF4C7C01BF4A5C1D0F0A6C1D1F0D26B58
:10116800D36B36C1CCF037C1CDF038C1CEF039C120
:10117800CFF042C1C8F043C1C9F044C1CAF045C16B
:10118800CBF010C2C4F011C2C5F012C2C6F013C22F
:10119800C7F0FEEC24F0C4C01CF4C5C01DF4C6C0E2
:1011A8001EF4C7C01FF4E2C225F0E3C226F0E4C271
:1011B80027F0E5C228F018C421F019C422F01AC497
:1011C80023F01BC424F07EEC1CF021C075F022C073
:1011D80076F023C077F024C078F0EEC225F0EFC295
:1011E80026F0F0C227F0F1C228F01CC421F01DC47B
:1011F80022F01EC423F01FC424F07EEC1CF021C092
:1012080071F022C072F023C073F024C074F014ECA3
:101218001FF071C020F472C021F473C022F474C0AE
:1012280023F420C421F021C422F022C423F023C4D3
:1012380024F03D0E256E0A0E266E970E276E3E0E82
:10124800286E7EEC1CF021C020F122C021F123C0C1
:1012580022F124C023F1ADC121F0AEC122F0AFC10B
:1012680023F0B0C124F096C125F097C126F098C1AB
:1012780027F099C128F07EEC1CF021C092F122C021
:1012880093F123C094F124C095F1CD0E136ECC0ECA
:10129800146E156E3D0E166E92C117F093C118F0BC
:1012A80094C119F095C11AF0B0EC29F01BE218C1ED
:1012B80091F019C192F01AC193F01BC194F092C138
:1012C80095F093C196F094C197F095C198F05FECB2
:1012D80022F091C08EF192C08FF193C090F194C02A
:1012E80091F105D001018E6B8F6B906B916BB1C141
:1012F80021F0B2C122F0B3C123F0B4C124F096C1E9
:1013080025F097C126F098C127F099C128F07EEC06
:101318001CF021C08AF122C08BF123C08CF124C0BB
:101328008DF1CD0E136ECC0E146E156E3D0E166E2D
:101338008AC117F08BC118F08CC119F08DC11AF051
:10134800B0EC29F01BE21CC191F01DC192F01EC146
:1013580093F01FC194F08AC195F08BC196F08CC1AF
:1013680097F08DC198F05FEC22F091C03CF292C0EA
:101378003DF293C03EF294C03FF205D002013C6BAF
:101388003D6B3E6B3F6BB5C121F0B6C122F0B7C1D2
:1013980023F0B8C124F096C125F097C126F098C172
:1013A80027F099C128F07EEC1CF021C086F122C0FC
:1013B80087F123C088F124C089F1CD0E136ECC0EBD
:1013C800146E156E3D0E166E86C117F087C118F0A3
:1013D80088C119F089C11AF0B0EC29F01BE220C1CC
:1013E80091F021C192F022C193F023C194F086C1FB
:1013F80095F087C196F088C197F089C198F05FECA5
:1014080022F091C038F292C039F293C03AF294C0F7
:101418003BF205D00201386B396B3A6B3B6B18C154
:1014280091F019C192F01AC193F01BC194F096C1C2
:1014380095F097C196F098C197F099C198F05FEC34
:1014480022F091C0ADF192C0AEF193C0AFF194C05B
:10145800B0F11CC191F01DC192F01EC193F01FC1E3
:1014680094F096C195F097C196F098C197F099C1FC
:1014780098F05FEC22F091C0B1F192C0B2F193C044
:10148800B3F194C0B4F120C191F021C192F022C10E
:1014980093F023C194F096C195F097C196F098C146
:1014A80097F099C198F05FEC22F091C0B5F192C025
:1014B800B6F193C0B7F194C0B8F1ADC113F0AEC1A5
:1014C80014F0AFC115F0B0C116F0CD0E176ECC0EEA
:1014D800186E196EBD0E1A6EB0EC29F003E2010108
:1014E8009A6B03D0010E01019A6FB1C113F0B2C11A
:1014F80014F0B3C115F0B4C116F0CD0E176ECC0EB2
:10150800186E196EBD0E1A6EB0EC29F003E20101D7
:101518009B6B03D0010E01019B6FB5C113F0B6C1DF
:1015280014F0B7C115F0B8C116F0CD0E176ECC0E79
:10153800186E196EBD0E1A6EB0EC29F003E20101A7
:101548009C6B03D0010E01019C6F0201306B316B63
:10155800326B336B0101426B436B446B456B020189
:101568002C6B2D6B2E6B2F6B01013E6B3F6B406B11
:10157800416B0201286B296B2A6B2B6B01013A6BBB
:101588003B6B3C6B3D6B0201246B256B266B276B19
:101598000101366B376B386B396B0201206B216B9D
:1015A800226B236B1C6B1D6B1E6B1F6B186B196BEF
:1015B8001A6B1B6B146B156B166B176B106B116B1F
:1015C800126B136B0C6B0D6B0E6B0F6B0101A56B24
:1015D800A66B17D0436A140E4C6E280E10D0436ABF
:1015E800280E4C6E140E0BD0050E436E190E4C6E61
:1015F8002D0E05D0050E436E2D0E4C6E190E4B6E3A
:101608000FD0ED51030B0001ED6FEE6BEE5108E1C9
:10161800ED51E0E0010AE3E0030AE6E0010AEAE04E
:101628000101AA6B040E476434D0146A136A2B0EA6
:10163800156E040E166EA7C117F0A8C118F08BEC32
:101648002BF013C024F414C025F42B0E0101A72598
:10165800196E040EA8211A6E1B6A1C6A1E6A100EE7
:101668001D6E64EC21F019C012F41AC013F40401C1
:10167800245112190EE1255113190BE106EC12F051
:10168800310EFD6503D00101AC8F02D00101AC8D94
:10169800476A0101AB5103E0AB51AC130CD0AD6B01
:1016A800AE6BAF6BB06BB16BB26BB36BB46BB56B4E
:1016B800B66BB76BB86B9DA202D09D989D880E0142
:1016C8009DA302D09D999D89455006E09EB2C5B95B
:1016D80003D0859C859A456A060E4664CBEF05F0D3
:1016E800030E01017E250001ED6F000E01017F212F
:1016F8000001EE6F000E010180210001EF6F000E66
:10170800010181210001F06FF151ED5DF251EE59B7
:10171800F351EF59F451F05902E3CBEF05F0146897
:101728001368A40E156E020E166E46C017F0186ADE
:101738008BEC2BF013C012F414C013F40A0E020140
:10174800A4192EE1060EA5192BE1080EA61928E109
:10175800A75126E1A85124E104011251131120E1F7
:101768000201A951030B140F0101ED6F04012A6B4B
:10177800A40E2A25D96EDA6A020EDA22400E2A252C
:10178800E16EE26A020EE222DFCFE7FF2A2B070EA4
:101798002A65EED72AC445F0446A1AEC2DF000D227
:1017A8000A0E0201A41901E0FBD1040EA51901E0FB
:1017B800F7D1150EA961F4D104011251131101E0FA
:1017C800EFD10101AC5101E1EBD10A0E0201406FEA
:1017D800040E416FA951020DF3CF42F2436BEDC1E4
:1017E80044F2FDC045F2ACC146F2070E04012A6F6F
:1017F800286B296B295154E1030E285D51E228C456
:10180800EDF029C4EEF00001D890ED37EE37D8900E
:10181800ED37EE37B90EED250401266F010E0001F4
:10182800EE210401276F20EE03F02651D926275117
:10183800DA22400E2A25E16EE26A020EE222DFCFAA
:10184800E7FF2A2B20EE02F02651D9262751DA226B
:10185800400E2A25E16EE26A020EE222DFCFE7FFA0
:101868002A2B20EE01F02651D9262751DA22400EE4
:101878002A25E16EE26A020EE222DFCFE7FF2A2B79
:1018880026C4D9FF27C4DAFF400E2A25E16EE26A92
:10189800020EE222DFCFE7FF2A2B284B292BAAD7FB
:1018A800286B296B295154E1030E285D51E228C4A5
:1018B800EDF029C4EEF00001D890ED37EE37D8905E
:1018C800ED37EE37C50EED250401266F010E000138
:1018D800EE210401276F20EE03F02651D926275167
:1018E800DA22400E2A25E16EE26A020EE222DFCFFA
:1018F800E7FF2A2B20EE02F02651D9262751DA22BB
:10190800400E2A25E16EE26A020EE222DFCFE7FFEF
:101918002A2B20EE01F02651D9262751DA22400E33
:101928002A25E16EE26A020EE222DFCFE7FF2A2BC8
:1019380026C4D9FF27C4DAFF400E2A25E16EE26AE1
:10194800020EE222DFCFE7FF2A2B284B292BAAD74A
:10195800286B296B295154E1030E285D51E228C4F4
:10196800EDF029C4EEF00001D890ED37EE37D890AD
:10197800ED37EE37AD0EED250401266F010E00019F
:10198800EE210401276F20EE03F02651D9262751B6
:10199800DA22400E2A25E16EE26A020EE222DFCF49
:1019A800E7FF2A2B20EE02F02651D9262751DA220A
:1019B800400E2A25E16EE26A020EE222DFCFE7FF3F
:1019C8002A2B20EE01F02651D9262751DA22400E83
:1019D8002A25E16EE26A020EE222DFCFE7FF2A2B18
:1019E80026C4D9FF27C4DAFF400E2A25E16EE26A31
:1019F800020EE222DFCFE7FF2A2B284B292BAAD79A
:101A080014681368400E156E020E166E2AC417F07D
:101A1800186A8BEC2BF013C024F414C025F4400E84
:101A280004012A25D96EDA6A020EDA2224C4DFFFFD
:101A38002A2B400E2A25D96EDA6A020EDA2225C42C
:101A4800DFFF2A2B2AC445F0446A1AEC2DF0010165
:101A5800AB5105E00401106B060E116F0ED00401A6
:101A6800106B020E116F320E0001FD6104D0010EE1
:101A780001019A6F02D001019A6BCDC175F0CEC1F8
:101A880076F0CFC177F0D0C178F0C9C171F0CAC182
:101A980072F0CBC173F0CCC174F014EC1FF071C0BC
:101AA80008F472C009F473C00AF474C00BF408C4D3
:101AB80071F009C472F00AC473F00BC474F0C5C1A4
:101AC80075F0C6C176F0C7C177F0C8C178F014ECDC
:101AD8001FF071C00CF472C00DF473C00EF474C022
:101AE8000FF4130EC46FFF0EC56FADC1C6F0AEC1C3
:101AF800C7F0AFC1C8F0B0C1C9F0B1C1CAF0B2C136
:101B0800CBF0B3C1CCF0B4C1CDF0B5C1CEF0B6C105
:101B1800CFF0B7C1D0F0B8C1D1F0C5C1D2F0C6C1BD
:101B2800D3F0C7C1D4F0C8C1D5F0C9C1D6F0CAC175
:101B3800D7F0CBC1D8F0CCC1D9F0CDC1DAF0CEC145
:101B4800DBF0CFC1DCF0D0C1DDF00CC4DEF00DC499
:101B5800DFF00EC4E0F00FC4E1F0D7EC0DF0720E28
:101B68000001C46FFF0EC56F8EC1C6F08FC1C7F0EC
:101B780090C1C8F091C1C9F03CC2CAF03DC2CBF0D7
:101B88003EC2CCF03FC2CDF038C2CEF039C2CFF061
:101B98003AC2D0F03BC2D1F0D7EC0DF0AC6BAB6BD6
:101BA800466ACBEF05F0C60E0101D56FF5EF11F0CF
:101BB800250EEA1905E0EA5124EC2DF0F5EF11F0B5
:101BC800DC6BDD6BDA6BDB6BC4C0F6FFC5C0F7FFFF
:101BD800F86A0800F55002EC2DF035E30101DC6BE2
:101BE800DD6BDCC113F0DDC114F0166A0A0E156E48
:101BF8009DEC2CF013C0DCF114C0DDF1D00E000117
:101C0800E26FE369C4C0F6FFC5C0F7FFF86A0800D1
:101C1800F550E46FE56BE251E427E351E523E45125
:101C28000101DC270001E5510101DD230001C44B5E
:101C3800C52BC4C0F6FFC5C0F7FFF86A0800F55009
:101C480002EC2DF0CEE2C4C0F6FFC5C0F7FFF86A7B
:101C58000800F5502E0A35E10101DB8D0001C44B67
:101C6800C52B0101E86BE96B21D00A0E0101E803DD
:101C7800F3CFE2F0F4CFE3F0E903F3500001E327F8
:101C8800C4C0F6FFC5C0F7FFF86A0800F550E227A0
:101C9800000EE323D00EE2250101E86FFF0E0001DC
:101CA800E3210101E96F0001C44BC52BC4C0F6FF55
:101CB800C5C0F7FFF86A0800F55002EC2DF008E3FC
:101CC800D4D70101E86BE96BDB8902D0DB8512D040
:101CD800C4C0F6FFC5C0F7FF0001C44BC52BF86AA6
:101CE8000800F5CFEAF10101EA51D8B41200660AFA
:101CF800EDE077D3070EDB1501E1F1D2DBA903D0C4
:101D0800E96B060EE86FD551D96EDA6ADECFE4F1D9
:101D1800DECFE5F1DECFE6F1DECFE7F1040ED52721
:101D2800E7AF15D0E4C113F0E5C114F0E6C115F032
:101D3800E7C116F0E4EC2CF013C0E4F114C0E5F1AF
:101D480015C0E6F116C0E7F1030E0101DA13E26BE4
:101D5800E36BE451E511E611E7117AE0E635E73582
:101D6800820FE26FE36BFF0EE323E207D8A0E307DD
:101D7800E2C113F0E3C114F0166A030E156E9DEC70
:101D88002CF013C0E2F114C0E3F1E2C119F0E3C191
:101D98001AF01C6A0A0E1B6E78EC2AF019C0E2F1E0
:101DA8001AC0E3F10101E3AF03D0E207D8A0E307CB
:101DB800E2510008D1EC14F060C0DEF161C0DFF13F
:101DC80062C0E0F163C0E1F1DEC121F0DFC122F0C1
:101DD800E0C123F0E1C124F0E4C125F0E5C126F01B
:101DE800E6C127F0E7C128F07EEC1CF021C0DEF147
:101DF80022C0DFF123C0E0F124C0E1F1DEC113F01D
:101E0800DFC114F0E0C115F0E1C116F0176A186AD5
:101E1800800E196E3F0E1A6EB0EC29F005E2010132
:101E2800E207D8A0E30714D0DEC113F0DFC114F035
:101E3800E0C115F0E1C116F0176A186A200E196E94
:101E4800410E1A6EB0EC29F003E30101E24BE32BDB
:101E58000101E9BF05D0E95120E10D0EE85D1DE261
:101E6800E4C171F0E5C172F0E6C173F0E7C174F046
:101E7800E851D0EC1DF060C075F061C076F062C02A
:101E880077F063C078F014EC1FF071C0E4F172C011
:101E9800E5F173C0E6F174C0E7F10101E3BF05D0D5
:101EA800E3511FE10A0EE25D1CE2E451E511E6117F
:101EB800E7115DE0E4C1AAF0E5C1ABF0E6C1ACF022
:101EC800E7C1ADF015EC29F0AA51AB11AC11AD1179
:101ED8004EE10101E3BF4BD0E35103E1020EE25DA5
:101EE80046E3DEC113F0DFC114F0E0C115F0E1C133
:101EF80016F05F0E176E700E186E890E196E400E72
:101F08001A6EB0EC29F003E20101F70E02D00101CC
:101F1800F80EE227FF0EE323E251D1EC14F060C083
:101F2800DEF161C0DFF162C0E0F163C0E1F1E4C15C
:101F380013F0E5C114F0E6C115F0E7C116F0DEC1F3
:101F480017F0DFC118F0E0C119F0E1C11AF006EC92
:101F580028F013C0D6F114C0D7F115C0D8F116C0B7
:101F6800D9F10101E46BE56BE66BE76B3AD0E4C1AC
:101F7800AAF0E5C1ABF0E6C1ACF0E7C1ADF015ECF5
:101F880029F0AAC0D6F1ABC0D7F1ACC0D8F1ADC02A
:101F9800D9F1E4C1BCF0E5C1BDF0E6C1BEF0E7C1CE
:101FA800BFF0D6C113F0D7C114F0D8C115F0D9C10C
:101FB80016F0000EABEC25F013C0C0F014C0C1F051
:101FC80015C0C2F016C0C3F00AEC2CF0BCC0E4F196
:101FD800BDC0E5F1BEC0E6F1BFC0E7F10101E26BAB
:101FE800E36B010EEA6FEA51040DC70EF324F66E97
:101FF800FE0EF420F76EF86A000EF8220900F5507C
:10200800D65D0900F550D7590900F550D85909008F
:10201800F550D95904E3EA2B0A0EEA19E4E1EAC1BA
:10202800E2F00001E36BE2BFE3070101E8510001C0
:10203800E2270101E9510001E3230101E251000116
:10204800E2270101E3510001E323E2510101DC5FD2
:102058000001E3510101DD5BE851E91103E0DC0710
:10206800D8A0DD07DAC1E2F0030E0001E21709E0AB
:102078000101DC07D8A0DD0704D0200E24EC2DF0E8
:10208800F7D70101DDBF04D0DD51F7E1DC05F5E24A
:10209800DAC1E2F0030E0001E21748E02D0E24EC4D
:1020A8002DF044D0D6C113F0D7C114F0D8C115F023
:1020B800D9C116F0EA51040DC70EF324F66EFE0ED0
:1020C800F420F76EF86A000EF8220900F5CF17F031
:1020D8000900F5CF18F00900F5CF19F00A00F5CF7F
:1020E8001AF0B4EC2AF013C0DEF114C0DFF115C009
:1020F800E0F116C0E1F1DEC113F0DFC114F0E0C178
:1021080015F0E1C116F00A0E176E186A196A1A6AF4
:102118005AEC2BF013C0DEF114C0DFF115C0E0F16A
:1021280016C0E1F1DE51300F24EC2DF00101EA0771
:10213800EA2908E0B7D7300E24EC2DF00101E207B8
:10214800D8A0E307E3BF04D0E351F5E1E205F3E2E9
:10215800E9BF08D0E95103E1090EE85D03E3080E81
:10216800EA6F02D0E8C1EAF1EA51E85F000EEABF7F
:10217800FF0EE95BEA5103E02E0E24EC2DF001017D
:10218800EA51D1EC14F060C0D1F161C0D2F162C063
:10219800D3F163C0D4F1E4C125F0E5C126F0E6C16E
:1021A80027F0E7C128F0D1C121F0D2C122F0D3C174
:1021B80023F0D4C124F07EEC1CF021C0AAF022C088
:1021C800ABF023C0ACF024C0ADF015EC29F0AAC0E8
:1021D800D6F1ABC0D7F1ACC0D8F1ADC0D9F16ED053
:1021E800D6C113F0D7C114F0D8C115F0D9C116F073
:1021F800EA51040DC70EF324F66EFE0EF420F76EB6
:10220800F86A000EF8220900F5CF17F00900F5CF9B
:1022180018F00900F5CF19F00A00F5CF1AF0B4EC60
:102228002AF013C0DEF114C0DFF115C0E0F116C0CA
:10223800E1F1DEC113F0DFC114F0E0C115F0E1C136
:1022480016F00A0E176E186A196A1A6A5AEC2BF0F9
:1022580013C0DEF114C0DFF115C0E0F116C0E1F1E2
:10226800DE51300F24EC2DF0D6C113F0D7C114F095
:10227800D8C115F0D9C116F00101EA51040DC70EF5
:10228800F324F66EFE0EF420F76EF86A000EF822BC
:102298000900F5CF17F00900F5CF18F00900F5CFC0
:1022A80019F00A00F5CF1AF05AEC2BF013C0D6F14A
:1022B80014C0D7F115C0D8F116C0D9F10101EA0749
:1022C800EA2908E08DD7300E24EC2DF00101E8074B
:1022D800D8A0E907E851E91101E183D0F4D7E85122
:1022E800E91107E1D651D711D811D91102E1E84B0C
:1022F800E92B800EEABF7F0E0001E26F0101E85171
:10230800EA5DE951800A0001E25903E2E8C1EAF115
:1023180014D00101E951800A0001E26F0101EA517C
:10232800E85D800EEABF7F0E0001E25906E2010176
:10233800EA51E86FE96BE8BFE9070101DC51DD11FB
:102348000AE0DAC1E2F0030E0001E21704E001013D
:10235800DC07D8A0DD070101DBAD15D0DC51E85D55
:10236800E951800A0001E26F0101DD51800A000194
:10237800E25906E20101E851DC5FE951DD5B03D077
:102388000101DC6BDD6B800EEABF7F0E0001E26F9E
:102398000101DC51EA5DDD51800A0001E25908E2E1
:1023A8000101EA51DC5F000EEABFFF0EDD5B03D0DE
:1023B8000101DC6BDD6BDC51DD110AE0200E24EC41
:1023C8002DF00101DC07D8A0DD07DC51DD11F6E1B5
:1023D800DAC1E2F0030E0001E21703E02D0E24EC4F
:1023E8002DF0C4C0F6FFC5C0F7FF0001C44BC52BD4
:1023F800F86A0800F5CFEAF10101EA5102E0DCEFE2
:102408000DF012000001C46BC56BC66BC76BC86BBF
:10241800C96BCA6BCB6BCC6BCD6BCE6BCF6BD06BF8
:10242800D16BD26BD36BD46BD56BD66BD76BD86BA8
:10243800D96BDA6BDB6BFD6B2B0E1E6E040E1F6EF9
:10244800F80E206EFF0E216E3BEC2AF01EC0E0F065
:102458001FC0E1F00001E051E1110BE0070EE0259B
:10246800166E000EE121176E65EC28F0165000017B
:10247800FD6F2B0E1E6E040E1F6ED00E206EFF0E0B
:10248800216E3BEC2AF01EC0E0F01FC0E1F0000115
:10249800E051E11110E0080EE025B56F000EE121D2
:1024A800B66FC2EC2CF0B5C0B9F1B6C0BAF1B7C07E
:1024B800BBF1B8C0BCF1B9C113F0BAC114F0BBC1CB
:1024C80015F0BCC116F0176A186A800E196E3F0E17
:1024D8001A6EB0EC29F007E20101B96BBA6B800EF5
:1024E800BB6F3F0EBC6F2B0E1E6E040E1F6EE00EF0
:1024F800206EFF0E216E3BEC2AF01EC0E0F01FC0DC
:10250800E1F00001E051E11110E0080EE025B56F9F
:10251800000EE121B66FC2EC2CF0B5C0BDF1B6C01B
:10252800BEF1B7C0BFF1B8C0C0F1BDC113F0BEC1A4
:1025380014F0BFC115F0C0C116F0176A186A800EF2
:10254800196E3F0E1A6EB0EC29F007E20101BD6B5F
:10255800BE6B800EBF6F3F0EC06F2B0E1E6E040E3B
:102568001F6EF00E206EFF0E216E3BEC2AF01EC08F
:10257800E0F01FC0E1F00001E051E11110E0080EA9
:10258800E025B56F000EE121B66FC2EC2CF0B5C0A6
:10259800C1F1B6C0C2F1B7C0C3F1B8C0C4F1C1C17E
:1025A80013F0C2C114F0C3C115F0C4C116F0176A04
:1025B800186A800E196E3F0E1A6EB0EC29F007E209
:1025C8000101C16BC26B800EC36F3F0EC46F2B0E2F
:1025D8001E6E040E1F6EB00E206EFF0E216E3BECB9
:1025E8002AF01EC0E0F01FC0E1F00001E051E11147
:1025F8002DE0080EE025B56F000EE121B66FC2ECA4
:102608002CF0B5C0DCF0B6C0DDF0B7C0DEF0B8C065
:10261800DFF0DCC021F0DDC022F0DEC023F0DFC037
:1026280024F0256A266A7A0E276E440E286E7EEC00
:102638001CF021C0C4F022C0C5F023C0C6F024C0DD
:10264800C7F00001FD5102E1320EFD6F2B0E1E6E28
:10265800040E1F6EB80E206EFF0E216E3BEC2AF0A2
:102668001EC0E0F01FC0E1F00001E051E11128E0D8
:10267800080EE025B56F000EE121B66FC2EC2CF014
:10268800B5C0DCF0B6C0DDF0B7C0DEF0B8C0DFF032
:10269800DCC021F0DDC022F0DEC023F0DFC024F072
:1026A800256A266A7A0E276E440E286E7EEC1CF088
:1026B80021C0C8F022C0C9F023C0CAF024C0CBF0A2
:1026C8002B0E1E6E040E1F6EC00E206EFF0E216EA6
:1026D8003BEC2AF01EC0E0F01FC0E1F00001E05121
:1026E800E11128E0080EE025B56F000EE121B66F74
:1026F800C2EC2CF0B5C0DCF0B6C0DDF0B7C0DEF03F
:10270800B8C0DFF0DCC021F0DDC022F0DEC023F06D
:10271800DFC024F0256A266A7A0E276E440E286EDA
:102728007EEC1CF021C0CCF022C0CDF023C0CEF04E
:1027380024C0CFF02B0E1E6E040E1F6EC80E206E26
:10274800FF0E216E3BEC2AF01EC0E0F01FC0E1F046
:102758000001E051E11128E0080EE025B56F000EF8
:10276800E121B66FC2EC2CF0B5C0DCF0B6C0DDF0EC
:10277800B7C0DEF0B8C0DFF0DCC021F0DDC022F069
:10278800DEC023F0DFC024F0256A266A7A0E276EA1
:10279800440E286E7EEC1CF021C0D0F022C0D1F08F
:1027A80023C0D2F024C0D3F02B0E1E6E040E1F6E71
:1027B800D80E206EFF0E216E3BEC2AF01EC0E0F012
:1027C8001FC0E1F00001E051E11128E0080EE0250A
:1027D800B56F000EE121B66FC2EC2CF0B5C0DCF08D
:1027E800B6C0DDF0B7C0DEF0B8C0DFF0DCC021F065
:1027F800DDC022F0DEC023F0DFC024F0256A266A9F
:102808007A0E276E440E286E7EEC1CF021C0D4F0A0
:1028180022C0D5F023C0D6F024C0D7F02B0E1E6EF0
:10282800040E1F6EE80E206EFF0E216E3BEC2AF0A0
:102838001EC0E0F01FC0E1F00001E051E11128E006
:10284800080EE025B56F000EE121B66FC2EC2CF042
:10285800B5C0DCF0B6C0DDF0B7C0DEF0B8C0DFF060
:10286800DCC021F0DDC022F0DEC023F0DFC024F0A0
:10287800256A266A7A0E276E440E286E7EEC1CF0B6
:1028880021C0D8F022C0D9F023C0DAF024C0DBF090
:10289800D0C0C0F0D1C0C1F0D2C0C2F0D3C0C3F024
:1028A800C4C0BCF0C5C0BDF0C6C0BEF0C7C0BFF054
:1028B8000AEC2CF0BCC091F0BDC092F0BEC093F001
:1028C800BFC094F0B9C195F0BAC196F0BBC197F0FA
:1028D800BCC198F05FEC22F091C0C5F192C0C6F17E
:1028E80093C0C7F194C0C8F1D4C0C0F0D5C0C1F03E
:1028F800D6C0C2F0D7C0C3F0C8C0BCF0C9C0BDF0D4
:10290800CAC0BEF0CBC0BFF00AEC2CF0BCC091F03E
:10291800BDC092F0BEC093F0BFC094F0BDC195F0A9
:10292800BEC196F0BFC197F0C0C198F05FEC22F02D
:1029380091C0C9F192C0CAF193C0CBF194C0CCF157
:10294800D8C0C0F0D9C0C1F0DAC0C2F0DBC0C3F053
:10295800CCC0BCF0CDC0BDF0CEC0BEF0CFC0BFF083
:102968000AEC2CF0BCC091F0BDC092F0BEC093F050
:10297800BFC094F0C1C195F0C2C196F0C3C197F031
:10298800C4C198F05FEC22F091C0CDF192C0CEF1B5
:1029980093C0CFF194C0D0F112000001686F68AF06
:1029A8001BD1686D6851800A120F01E29FD01C6A22
:1029B8000A0E1B6E166A640E156E6851136E146A41
:1029C80013BE140626EC2BF013C019F014C01AF02D
:1029D80078EC2AF0D89019361A36D89019361A3663
:1029E800240E1926000E1A22930E1924F66EFE0ED6
:1029F8001A20F76EF86A000EF8220900F5CF25F0C4
:102A08000900F5CF26F00900F5CF27F00A00F5CF29
:102A180028F01C6A640E1B6E00016851196E1A6A50
:102A280019BE1A0678EC2AF0D89019361A36D890BA
:102A380019361A36480E1926000E1A22930E192432
:102A4800F66EFE0E1A20F76EF86A000EF8220900DC
:102A5800F5CF21F00900F5CF22F00900F5CF23F0DA
:102A68000A00F5CF24F07EEC1CF021C064F022C0EF
:102A780065F023C066F024C067F064C021F065C02B
:102A880022F066C023F067C024F0166A0A0E156E9D
:102A980000016851136E146A13BE140626EC2BF05D
:102AA800D89013361436D89013361436930E132450
:102AB800F66EFE0E1420F76EF86A000EF822090072
:102AC800F5CF25F00900F5CF26F00900F5CF27F05E
:102AD8000A00F5CF28F07EEC1CF021C060F022C07F
:102AE80061F023C062F024C063F012006851800ACC
:102AF800750F5AE31C6A0A0E1B6E6851196E1A6A22
:102B080019BE1A0678EC2AF0D89019361A36D890D9
:102B180019361A36240E1926000E1A22930E192475
:102B2800F66EFE0E1A20F76EF86A000EF8220900FB
:102B3800F5CF21F00900F5CF22F00900F5CF23F0F9
:102B48000A00F5CF24F0166A0A0E156E00016851C6
:102B5800136E146A13BE140626EC2BF0D8901336A5
:102B68001436D89013361436930E1324F66EFE0ED0
:102B78001420F76EF86A000EF8220900F5CF25F048
:102B88000900F5CF26F00900F5CF27F00A00F5CFA8
:102B980028F07EEC1CF021C060F022C061F023C058
:102BA80062F024C063F012006851040D930EF32400
:102BB800F66EFE0EF420F76EF86A000EF822090091
:102BC800F5CF60F00900F5CF61F00900F5CF62F0AC
:102BD8000A00F5CF63F012006851800A120F01E273
:102BE8009FD01C6A0A0E1B6E166A640E156E685119
:102BF800136E146A13BE140626EC2BF013C019F0DA
:102C080014C01AF078EC2AF0D89019361A36D890F1
:102C180019361A36240E1926000E1A225F0E1924A8
:102C2800F66EFE0E1A20F76EF86A000EF8220900FA
:102C3800F5CF25F00900F5CF26F00900F5CF27F0EC
:102C48000A00F5CF28F01C6A640E1B6E000168515B
:102C5800196E1A6A19BE1A0678EC2AF0D890193635
:102C68001A36D89019361A36480E1926000E1A2226
:102C78005F0E1924F66EFE0E1A20F76EF86A000E23
:102C8800F8220900F5CF21F00900F5CF22F009005C
:102C9800F5CF23F00A00F5CF24F07EEC1CF021C01C
:102CA80064F022C065F023C066F024C067F064C0F9
:102CB80021F065C022F066C023F067C024F0166AD0
:102CC8000A0E156E00016851136E146A13BE1406BD
:102CD80026EC2BF0D89013361436D89013361436C9
:102CE8005F0E1324F66EFE0E1420F76EF86A000EBF
:102CF800F8220900F5CF25F00900F5CF26F00900E4
:102D0800F5CF27F00A00F5CF28F07EEC1CF021C0A3
:102D180060F022C061F023C062F024C063F01200AA
:102D28006851800A750F5AE31C6A0A0E1B6E6851B7
:102D3800196E1A6A19BE1A0678EC2AF0D890193654
:102D48001A36D89019361A36240E1926000E1A2269
:102D58005F0E1924F66EFE0E1A20F76EF86A000E42
:102D6800F8220900F5CF21F00900F5CF22F009007B
:102D7800F5CF23F00A00F5CF24F0166A0A0E156E77
:102D880000016851136E146A13BE140626EC2BF06A
:102D9800D89013361436D890133614365F0E132491
:102DA800F66EFE0E1420F76EF86A000EF82209007F
:102DB800F5CF25F00900F5CF26F00900F5CF27F06B
:102DC8000A00F5CF28F07EEC1CF021C060F022C08C
:102DD80061F023C062F024C063F012006851040D52
:102DE8005F0EF324F66EFE0EF420F76EF86A000EFE
:102DF800F8220900F5CF60F00900F5CF61F009006D
:102E0800F5CF62F00A00F5CF63F012000201DE6B25
:102E1800DF6B980EE06FC10EE16FB80EDA6F1E0E11
:102E2800DB6F950EDC6FC10EDD6F710ED66F3D0E38
:102E3800D76F920ED86FC10ED96FDEC260F0DFC2B5
:102E480061F0E0C262F0E1C263F028EC2CF060C0EF
:102E5800C4F061C0C5F062C0C6F063C0C7F021EC21
:102E68001BF0C4C0DDF0C5C0DEF0C6C0DFF0C7C0CF
:102E7800E0F00001606B616BC00E626F400E636F23
:102E880028EC2CF060C0C4F061C0C5F062C0C6F088
:102E980063C0C7F021EC1BF0C4C0E1F0C5C0E2F08C
:102EA800C6C0E3F0C7C0E4F0DDC091F0DEC092F028
:102EB800DFC093F0E0C094F0E1C095F0E2C096F076
:102EC800E3C097F0E4C098F05FEC22F091C0EAF21A
:102ED80092C0EBF293C0ECF294C0EDF2606B616BC0
:102EE800C00E626F400E636F28EC2CF060C0D5F006
:102EF80061C0D6F062C0D7F063C0D8F0C0EC28F04B
:102F0800D5C0E5F0D6C0E6F0D7C0E7F0D8C0E8F005
:102F1800DEC260F0DFC261F0E0C262F0E1C263F0DD
:102F280028EC2CF060C0D5F061C0D6F062C0D7F0B4
:102F380063C0D8F0C0EC28F0D5C0E9F0D6C0EAF0FC
:102F4800D7C0EBF0D8C0ECF0E9C0BCF0EAC0BDF0E7
:102F5800EBC0BEF0ECC0BFF0EAC225F0EBC226F031
:102F6800ECC227F0EDC228F0E5C021F0E6C022F05F
:102F7800E7C023F0E8C024F07EEC1CF021C0C0F0CC
:102F880022C0C1F023C0C2F024C0C3F00AEC2CF068
:102F9800BCC0F6F2BDC0F7F2BEC0F8F2BFC0F9F28D
:102FA800DAC260F0DBC261F0DCC262F0DDC263F05D
:102FB80028EC2CF060C0C4F061C0C5F062C0C6F057
:102FC80063C0C7F021EC1BF0C4C0DDF0C5C0DEF063
:102FD800C6C0DFF0C7C0E0F00001606B616BC00ED7
:102FE800626F400E636F28EC2CF060C0C4F061C0C3
:102FF800C5F062C0C6F063C0C7F021EC1BF0C4C0C6
:10300800E1F0C5C0E2F0C6C0E3F0C7C0E4F0DDC03F
:1030180091F0DEC092F0DFC093F0E0C094F0E1C020
:1030280095F0E2C096F0E3C097F0E4C098F05FEC4A
:1030380022F091C0E6F292C0E7F293C0E8F294C0A1
:10304800E9F2606B616BC00E626F400E636F28EC33
:103058002CF060C0D5F061C0D6F062C0D7F063C074
:10306800D8F0C0EC28F0D5C0E5F0D6C0E6F0D7C05F
:10307800E7F0D8C0E8F0DAC260F0DBC261F0DCC289
:1030880062F0DDC263F028EC2CF060C0D5F061C0BE
:10309800D6F062C0D7F063C0D8F0C0EC28F0D5C035
:1030A800E9F0D6C0EAF0D7C0EBF0D8C0ECF0E9C040
:1030B800BCF0EAC0BDF0EBC0BEF0ECC0BFF0E6C2A9
:1030C80025F0E7C226F0E8C227F0E9C228F0E5C0FB
:1030D80021F0E6C022F0E7C023F0E8C024F07EEC3F
:1030E8001CF021C0C0F022C0C1F023C0C2F024C02F
:1030F800C3F00AEC2CF0BCC0F2F2BDC0F3F2BEC0C3
:10310800F4F2BFC0F5F2D6C260F0D7C261F0D8C2FF
:1031180062F0D9C263F028EC2CF060C0C4F061C042
:10312800C5F062C0C6F063C0C7F021EC1BF0C4C094
:10313800DDF0C5C0DEF0C6C0DFF0C7C0E0F00001BA
:10314800606B616BC00E626F400E636F28EC2CF0F1
:1031580060C0C4F061C0C5F062C0C6F063C0C7F00B
:1031680021EC1BF0C4C0E1F0C5C0E2F0C6C0E3F03A
:10317800C7C0E4F0DDC091F0DEC092F0DFC093F08C
:10318800E0C094F0E1C095F0E2C096F0E3C097F09B
:10319800E4C098F05FEC22F091C0E2F292C0E3F252
:1031A80093C0E4F294C0E5F2606B616BC00E626F8D
:1031B800400E636F28EC2CF060C0D5F061C0D6F0EB
:1031C80062C0D7F063C0D8F0C0EC28F0D5C0E5F0F5
:1031D800D6C0E6F0D7C0E7F0D8C0E8F0D6C260F0B5
:1031E800D7C261F0D8C262F0D9C263F028EC2CF0E3
:1031F80060C0D5F061C0D6F062C0D7F063C0D8F027
:10320800C0EC28F0D5C0E9F0D6C0EAF0D7C0EBF0A2
:10321800D8C0ECF0E9C0BCF0EAC0BDF0EBC0BEF02D
:10322800ECC0BFF0E2C225F0E3C226F0E4C227F00A
:10323800E5C228F0E5C021F0E6C022F0E7C023F09F
:10324800E8C024F07EEC1CF021C0C0F022C0C1F020
:1032580023C0C2F024C0C3F00AEC2CF0BCC0EEF2CC
:10326800BDC0EFF2BEC0F0F2BFC0F1F21200AC5127
:10327800AD110CE0ACC0D9FFADC0DAFFAAC0DEFFCB
:10328800ABC0DDFF03D00001AA4BAB2BAAC0D9FF0E
:10329800ABC0DAFFDF50AE6FAE51D3EC2CF0F3E2E7
:1032A8000001AF6B2D0EAE1905E1010EAF6FAA4BF1
:1032B800AB2B03D02B0EAE19FAE0AE6BB16BB26B31
:1032C800B36BB46BB06BAFB909D0AAC0D9FFABC0B0
:1032D800DAFF2E0EDE1802E1AF8935D0AAC0D9FF79
:1032E800ABC0DAFFDF5002EC2DF030E30001AF8312
:1032F800090EAE1926E0AFB9B007AE2BB1C013F076
:10330800B2C014F0B3C015F0B4C016F00A0E176EB0
:10331800186A196A1A6AF8EC29F013C0B1F014C0D7
:10332800B2F015C0B3F016C0B4F0AAC0D9FFABC054
:10333800DAFFDF50D00FB127000EB223B323B42336
:1033480002D0AFA9B02BAA4BAB2BBDD70001AE6BF7
:10335800AAC0D9FFABC0DAFF650EDE1807E0AAC025
:10336800D9FFABC0DAFF450EDE185CE1AA4BAB2BE8
:10337800AAC0D9FFABC0DAFF2D0EDE1802E1AF8775
:1033880007D0AAC0D9FFABC0DAFF2B0EDE1802E1C6
:10339800AA4BAB2BAAC0D9FFABC0DAFF300EDE18A0
:1033A800F7E0AAC0D9FFABC0DAFFDF5002EC2DF07E
:1033B80036E3AAC0D9FFABC0DAFFDF50D00F000157
:1033C800AE6FAA4BAB2BAAC0D9FFABC0DAFFDF5058
:1033D80002EC2DF024E3AAC0D9FFABC0DAFFDF501E
:1033E8003A6E0001AE510A0DF3503A24D00FAE6F79
:1033F800AA4BAB2BAAC0D9FFABC0DAFFDF5002EC57
:103408002DF00DE3AAC0D9FFABC0DAFFDF503A6E4A
:103418000001AE510A0DF3503A24D00FAE6F0001EF
:10342800AFB7AE6DAE51B027AC51AD110AE0AFA346
:1034380008D0ACC0D9FFADC0DAFFAAC0DEFFABC070
:10344800DDFFB1C013F0B2C014F0B3C015F0B4C0C2
:1034580016F0010EABEC25F013C0B1F014C0B2F0B9
:1034680015C0B3F016C0B4F00001B151B211B311D8
:10347800B41105E1AA6BAB6BAC6BAD6B1200B0AFCE
:103488005DD0B06D1CD0B1C091F0B2C092F0B3C0A5
:1034980093F0B4C094F0F90E956F020E966F150E66
:1034A800976F500E986F5FEC22F091C0B1F092C008
:1034B800B2F093C0B3F094C0B4F0F60EB027B05198
:1034C800800A760F1AE3DFD7B1C091F0B2C092F04C
:1034D800B3C093F0B4C094F0956B966B200E976FC1
:1034E800410E986F5FEC22F091C0B1F092C0B2F03B
:1034F80093C0B3F094C0B4F0B007B051E5E1B1C0E7
:1035080013F0B2C014F0B3C015F0B4C016F0176AC7
:10351800186A800E196E1A6AB0EC29F070E2000180
:10352800AFA106D0AA6BAB6B800EAC6FAD6F800CF1
:10353800AA6BAB6B800EAC6FAD6B000CB051800A00
:103548007F0F1EE25CD0B1C021F0B2C022F0B3C040
:1035580023F0B4C024F0F90E256E020E266E150E67
:10356800276E500E286E7EEC1CF021C0B1F022C0F0
:10357800B2F023C0B3F024C0B4F0F60E0001B027B7
:103588000A0EB061E0D71AD0B1C021F0B2C022F063
:10359800B3C023F0B4C024F0256A266A200E276E33
:1035A800410E286E7EEC1CF021C0B1F022C0B2F0B2
:1035B80023C0B3F024C0B4F00001B007B051E4E177
:1035C800136814687F0E156E166EB1C017F0B2C07E
:1035D80018F0B3C019F0B4C01AF0B0EC29F00FE23B
:1035E8000001AFA106D0AA6BAB6B800EAC6FAD6FBC
:1035F800800CAA6BAB6B800EAC6FAD6B000C00013E
:10360800AFA112D0B1C013F0B2C014F0B3C015F01E
:10361800B4C016F0E4EC2CF013C0B1F014C0B2F052
:1036280015C0B3F016C0B4F0B1C0AAF0B2C0ABF088
:10363800B3C0ACF0B4C0ADF012000001D46BC7AF9A
:1036480015D0C4C013F0C5C014F0C6C015F0C7C06B
:1036580016F0E4EC2CF013C0C4F014C0C5F015C08B
:10366800C6F016C0C7F0010E0001D46FC4C021F027
:10367800C5C022F0C6C023F0C7C024F0830E256E53
:10368800F90E266E220E276E3E0E286E7EEC1CF07A
:1036980021C0C4F022C0C5F023C0C6F024C0C7F0C2
:1036A800C4C0BCF0C5C0BDF0C6C0BEF0C7C0BFF046
:1036B800C4C0B2F0C5C0B3F0C6C0B4F0C7C0B5F05E
:1036C80037EC26F0B2C0C0F0B3C0C1F0B4C0C2F04D
:1036D800B5C0C3F00AEC2CF0BCC0C4F0BDC0C5F046
:1036E800BEC0C6F0BFC0C7F0C4C021F0C5C022F03C
:1036F800C6C023F0C7C024F0256A266A800E276E4C
:10370800400E286E7EEC1CF021C0C4F022C0C5F02B
:1037180023C0C6F024C0C7F0136A146A156A400EA5
:10372800166EC4C017F0C5C018F0C6C019F0C7C0DF
:103738001AF0B0EC29F01DE2C4C0BCF0C5C0BDF061
:10374800C6C0BEF0C7C0BFF00001C06BC16BC26B82
:10375800400EC36F0AEC2CF0BCC0C4F0BDC0C5F06D
:10376800BEC0C6F0BFC0C7F0D451010ED8A4000E29
:10377800D46F136A146A800E156E3F0E166EC4C09D
:1037880017F0C5C018F0C6C019F0C7C01AF0B0ECE1
:1037980029F018E20001BC6BBD6BBE6B400EBF6F19
:1037A800C4C0C0F0C5C0C1F0C6C0C2F0C7C0C3F035
:1037B8000AEC2CF0BCC0C4F0BDC0C5F0BEC0C6F059
:1037C800BFC0C7F0C4C021F0C5C022F0C6C023F0F6
:1037D800C7C024F0C4C025F0C5C026F0C6C027F075
:1037E800C7C028F07EEC1CF021C0D0F022C0D1F078
:1037F80023C0D2F024C0D3F0D0C081F0D1C082F071
:10380800D2C083F0D3C084F0030E0001856FFF0E91
:10381800866F886B030E876FB5EC26F081C0C8F001
:1038280082C0C9F083C0CAF084C0CBF0C8C095F08C
:10383800C9C096F0CAC097F0CBC098F0886B040E48
:10384800876FEF0E856FFE0E866FD0C081F0D1C0F6
:1038580082F0D2C083F0D3C084F0B5EC26F081C0EA
:1038680091F082C092F083C093F084C094F05FEC32
:1038780022F091C0CCF092C0CDF093C0CEF094C0AD
:10388800CFF0C4C021F0C5C022F0C6C023F0C7C025
:1038980024F0CCC025F0CDC026F0CEC027F0CFC094
:1038A80028F07EEC1CF021C0C4F022C0C5F023C073
:1038B800C6F024C0C7F00001D45113E0C4C013F00F
:1038C800C5C014F0C6C015F0C7C016F0E4EC2CF063
:1038D80013C0C4F014C0C5F015C0C6F016C0C7F0B8
:1038E8001200C4C0C4F0C5C0C5F0C6C0C6F0C7C089
:1038F800C7F012002450800B2D6E245024242F6E04
:1039080023BE2F802F5008E02F2804E1216A226A65
:10391800236A246A238E04D0216A226A236A246ACD
:103928002850800B2D1A285028242E6E27BE2E8052
:103938002E5008E02E2804E1256A266A276A286A9C
:10394800278E04D0256A266A276A286A2E5002E044
:103958002F5005E1216A226A236A246A120027503F
:103968002102F3CF38F0F4CF39F03850306E316A95
:10397800326A336A3950346E356A366A376A265085
:103988002202F3CF38F0F4CF39F038503026000E49
:1039980031223222332239503426000E3522362283
:1039A800372225502302F3CF38F0F4CF39F03850BE
:1039B8003026000E31223222332239503426000EAE
:1039C80035223622372232C033F031C032F030C0CF
:1039D80031F0306A25502202F3CF38F0F4CF39F0B5
:1039E8003850302639503122000E322233222650E8
:1039F8002102F3CF38F0F4CF39F03850302639505F
:103A08003122000E3222332232C033F031C032F07C
:103A180030C031F0306A25502102F3CF38F0F4CFAE
:103A280039F03850302639503122000E32223322F4
:103A380027502202F3CF38F0F4CF39F0385034262B
:103A480039503522000E3622372226502302F3CF72
:103A580038F0F4CF39F03850342639503522000E7A
:103A68003622372227502302F3CF38F0F4CF39F02B
:103A78003850296E39502A6E2B6A2C6A2BC02CF0CC
:103A88002AC02BF029C02AF0296A295034262A5046
:103A980035222B5036222C50372233503426000E34
:103AA80035223622372232C033F031C032F030C0EE
:103AB80031F0306A2E502FC029F02A6A2926000ECC
:103AC8002A22820E2924386EFF0E2A20396E0FD042
:103AD800D890343635363636373633BE3480D890BB
:103AE80030363136323633363806D8A0390636AE57
:103AF800EFD72E6A33AE13D03050296E31502A6E6C
:103B080032502B6E7F0E33142C6E29502A102B1036
:103B18002C1003E0010E2E6E02D034B0FBD72E50CD
:103B28000EE0342A000E35223622372237A007D07D
:103B380037343732363235323432384A392A39BE98
:103B48000AD0395002E1382806E3346A356A800E13
:103B5800366E7F0E15D039BE04D0395008E13804CE
:103B680006E2346A356A366A376A2D6A0AD038C07E
:103B78002FF07F0E3616376A2FB0368ED8902F303A
:103B8800376E2D50371234C021F035C022F036C0C0
:103B980023F037C024F012000001706F6D0E7065BD
:103BA800AAD00A0E176E640E136E70518AEC2CF0B0
:103BB80043EC2CF00001646F656BD890643765376F
:103BC800D89064376537240E6427000E6523930E5A
:103BD8006425F66EFE0E6521F76EF86A000EF8226F
:103BE8000900F5CF25F00900F5CF26F00900F5CF3B
:103BF80027F00A00F5CF28F0640E176E705143ECD9
:103C08002CF00001666F676BD89066376737D890DD
:103C180066376737480E6627000E6723930E6625BA
:103C2800F66EFE0E6721F76EF86A000EF82209009C
:103C3800F5CF21F00900F5CF22F00900F5CF23F0E8
:103C48000A00F5CF24F07EEC1CF021C06CF022C0F5
:103C58006DF023C06EF024C06FF00A0E136E0001E1
:103C680070518AEC2CF00001646F656BD890643752
:103C78006537D89064376537930E6425F66EFE0E67
:103C88006521F76EF86A000EF8220900F5CF25F0D5
:103C98000900F5CF26F00900F5CF27F00A00F5CF87
:103CA80028F06CC021F06DC022F06EC023F06FC008
:103CB80024F07EEC1CF021C068F022C069F023C01B
:103CC8006AF024C06BF068C021F069C022F06AC0B5
:103CD80023F06BC024F0256A266A276A3F0E286EF7
:103CE8007EEC1CF021C060F022C061F023C062F0BD
:103CF80024C063F012000A0E70656BD0136E705109
:103D08008AEC2CF00001646F656BD89064376537D6
:103D1800D89064376537930E6425F66EFE0E6521DC
:103D2800F76EF86A000EF8220900F5CF25F00900B1
:103D3800F5CF26F00900F5CF27F00A00F5CF28F0D7
:103D48000A0E176E705143EC2CF00001666F676B1A
:103D5800D89066376737D89066376737240E662756
:103D6800000E6723930E6625F66EFE0E6721F76E2A
:103D7800F86A000EF8220900F5CF21F00900F5CF06
:103D880022F00900F5CF23F00A00F5CF24F07EECED
:103D98001CF021C06CF022C06DF023C06EF024C06E
:103DA8006FF06CC021F06DC022F06EC023F06FC0C0
:103DB80024F0256A266A276A3F0E286E7EEC1CF0DE
:103DC80021C060F022C061F023C062F024C063F01B
:103DD80012007051040D930EF324F66EFE0EF420BB
:103DE800F76EF86A000EF8220900F5CF21F00900F5
:103DF800F5CF22F00900F5CF23F00A00F5CF24F023
:103E0800256A266A276A3F0E286E7EEC1CF021C0C0
:103E180060F022C061F023C062F024C063F0120099
:103E280000017451800B7D6F745174257F6F73BFCF
:103E38007F817F5108E07F2904E1716B726B736B9E
:103E4800746B738F03D0716B726B736B746B785177
:103E5800800B7E6F7D1901E07D8D785178257E6F0E
:103E680077BF7E817E5108E07E2904E1756B766B11
:103E7800776B786B778F03D0756B766B776B786B16
:103E88007F517E5D22E27DAD02D0800E7D1B7FC01A
:103E980080F07EC07FF080C07EF071C080F075C079
:103EA80071F080C075F072C080F076C072F080C08A
:103EB80076F073C080F077C073F080C077F074C07C
:103EC80080F078C074F080C078F0806B7F517EC03D
:103ED80079F07A6B795F000E7A5B7ABF25D07A51D8
:103EE80003E11A0E795D20E3715172117311741197
:103EF800010ED8B4000E806F716B726B736B746BAC
:103F08007EC07FF014D080A105D0D89080310109FF
:103F1800806F02D0D890803371B1808F743574333C
:103F28007333723371337F2B7E517F5DECE37DBD3C
:103F380024D07F5105E1716B726B736B746B120047
:103F480075517127765172237751732378517423F1
:103F580074A169D080A106D0D8908033805101091E
:103F6800806F02D0D890803371B1808F74357433EC
:103F78007333723371337F2B56D07551715D76511F
:103F88007259775173597451800A796F7851800A40
:103F9800795923E27151755D796F725176597A6F4B
:103FA800735177597B6F745178597C6FFF0E79255F
:103FB800716FFF0E7A21726FFF0E7B21736FFF0EF8
:103FC8007C21746F800E7D1B806D80510EE1712BFA
:103FD800000E72237323742308D07551715F7651D4
:103FE800725B7751735B7851745B71517211731105
:103FF800741117E1805115E1716B726B736B746BFF
:104008001200D890713772377337743780BF718157
:1040180080A102D0D88001D0D89080377F5101E0AC
:104028007F0773AFEED77E6B80AF0AD080C079F080
:104038007F0E791703E0010E7E6F02D071B1FBD7B6
:104048007E510FE0712B000E72237323742374A129
:1040580008D0743574337333723371337F2901E0B8
:104068007F2B7F2902E07F5107E1716B726B736BC5
:10407800746B7F5101E17D6B7FA102D0738F01D0FA
:10408800739FD8907F31746F7DBF748F71C071F04A
:1040980072C072F073C073F074C074F01200AA5149
:1040A80001E0D2D07A510201302701017B5102018F
:1040B800312301017C510201322301017D510201AA
:1040C800332301016A5142276B5143236C51442326
:1040D8006D514523765102012C27010177510201C8
:1040E8002D230101785102012E230101795102018A
:1040F8002F23010166513E2767513F236851402312
:1041080069514123725102012827010173510201AB
:1041180029230101745102012A2301017551020169
:104128002B23010162513A2763513B2364513C23FD
:1041380065513D236E510201242701016F5102018F
:104148002523010170510201262301017151020149
:10415800272301015E5136275F51372360513823E9
:10416800615139235A510201202701015B51020193
:10417800212301015C510201222301015D51020149
:1041880023230101565102011C2701015751020145
:104198001D230101585102011E2301015951020139
:1041A8001F23010152510201182701015351020135
:1041B80019230101545102011A2301015551020129
:1041C8001B2301014E510201142701014F51020125
:1041D8001523010150510201162301015151020119
:1041E800172301014A510201102701014B51020115
:1041F800112301014C510201122301014D51020109
:1042080013230101465102010C2701014751020104
:104218000D230101485102010E23010149510201F8
:104228000F230001F5510101A5270001F6510101F5
:10423800A623A14BA22BA25103E1320EA15D04E3F8
:10424800010EAA6FA16BA26B7A6B7B6B7C6B7D6B8B
:104258006A6B6B6B6C6B6D6B766B776B786B796B72
:10426800666B676B686B696B726B736B746B756B82
:10427800626B636B646B656B6E6B6F6B706B716B92
:104288005E6B5F6B606B616B5A6B5B6B5C6B5D6BE2
:10429800566B576B586B596B526B536B546B556B12
:1042A8004E6B4F6B506B516B4A6B4B6B4C6B4D6B42
:1042B800466B476B486B496B0001F56BF66B120058
:1042C80019C0D9FF1AC0DAFFDF502C6E194A1A2A12
:1042D8002C50D3EC2CF0F4E2286A296A2A6A2B6A5B
:1042E800276A2D0E2C180BE1010E276E19C0D9FF75
:1042F8001AC0DAFFDF502C6E194A1A2A03D02B0E87
:104308002C18F4E0300E2C1827E119C0D9FF1AC078
:10431800DAFFDF502C6E194A1A2A1D501E1004E0CD
:10432800100E1D181E1012E1780E2C1803E0580EFE
:104338002C180CE11E6A100E1D6E19C0D9FF1AC088
:10434800DAFFDF502C6E194A1A2A06D01D501E10AB
:1043580003E11E6A080E1D6E1D501E1003E11E6A41
:104368000A0E1D6E2C50B0EC2CF006E32C5010EC0D
:104378002DF0C90F2C6E06D02C5002EC2DF065E301
:10438800300E2C5E2C501F6E206A1D501F5C205072
:10439800800A216E1E50800A215857E21DC01FF066
:1043A8001EC020F0000E20BEFF0E216E226E1F5090
:1043B8002802F3CF23F0F4CF24F0256A266A2902D5
:1043C800F3502426F4502522000E262220502802DD
:1043D800F3502426F4502522000E26221F502A02CC
:1043E800F3502526F450262220502902F350252682
:1043F800F450262221502802F3502526F450262274
:104408002B501F02F350262620502A02F35026264E
:1044180021502902F350262622502802F35026263E
:104428002C502324286E000E2420296E000E2520EF
:104438002A6E000E26202B6E19C0D9FF1AC0DAFF8B
:10444800DF502C6E194A1A2A8DD71B501C100EE00B
:10445800FF0E19241F6EFF0E1A20206E1BC0D9FFF5
:104468001CC0DAFF1FC0DEFF20C0DDFF27501AE0A6
:1044780028C01FF029C020F02AC021F02BC022F04C
:104488001F1E201E211E221E1F2A000E202221224E
:1044980022221FC019F020C01AF021C01BF022C030
:1044A8001CF0000C28C019F029C01AF02AC01BF013
:1044B8002BC01CF0120000019451800B9D6F945189
:1044C8009425A86F93BFA881A85108E0A82904E102
:1044D800916B926B936B946B938F03D0916B926BF0
:1044E800936B946B9851800B9D1B98519825A96FDD
:1044F80097BFA981A95108E0A92904E1956B966B9A
:10450800976B986B978F03D0956B966B976B986B9F
:10451800955196119711981111E1916B926B936BCC
:10452800946B800E93137F0E941391C091F092C0F8
:1045380092F093C093F094C094F01200A85105E152
:10454800916B926B936B946B1200A951A8C099F070
:104558009A6B995F000E9A5B7F0E9925A26F000EE9
:104568009A21A36F91C09EF092C09FF093C0A0F0D3
:1045780094C0A1F0916B926B936B946BA46BA56B39
:10458800A66BA76BA96B26D0A95111E0D8909E37CE
:104598009F37A037A137D890913792379337943700
:1045A800A7BF9181D890A437A537A637A7379551CB
:1045B8009E5D96519F599751A0599851A15909E369
:1045C800A78D95519E5F96519F5B9751A05B98511F
:1045D800A15BA92B190EA965D7D79E519F11A011D0
:1045E800A11111E0A4810FD0D89091379237933759
:1045F8009437A7BF9181D890A437A537A637A73796
:10460800A207D8A0A30793AFEFD7A96BA7AF13D082
:10461800A451996FA5519A6FA6519B6F7F0EA7154C
:104628009C6F99519A119B119C1103E0010EA96F7F
:1046380002D091B1FBD7A9510EE0912B000E922325
:104648009323942394A107D09435943393339233CE
:104658009133A24BA32BA3BF0AD0A35102E1A229F5
:1046680006E3A36BA269916B926B936B946BA3BFE8
:1046780004D0A35109E1A20507E2A26BA36B916BD9
:10468800926B936B946B9D6BA2C0A8F0A8A102D00B
:10469800938F01D0939FD890A831946F9D5144D7A0
:1046A800AD51800BB26FAD51AD25BC6FACBFBC81B5
:1046B800BCC0BDF0BE6BAA51BF6FAB51C06F7F0EBF
:1046C800AC15C16FC26BBD51BE1104E0C18FBD29CD
:1046D800BE1104E1BF6BC06BC16BC26BBD51BE1193
:1046E80005E1AA6BAB6BAC6BAD6B1200B25112E07B
:1046F800C36BC46B400EC56FC66B800EC513FF0E2F
:10470800C613C3C0AAF0C4C0ABF0C5C0ACF0C6C0E5
:10471800ADF01200BD29BE1107E1C36BC46B800E5A
:10472800C56F7F0EC66FEDD7810EBD27FF0EBE2366
:10473800BD51010BBC6FBE35BE33BD337F0EBD27E7
:10474800000EBE23D890BF35B46FC035B56FC135E4
:10475800B66FC235B76FBF6BC06BC16BC26B000E53
:10476800B86FB96FBA6F010EBB6FBC5105E0D89036
:10477800B437B537B637B737B36B41D0B851BF1375
:10478800B951C013BA51C113BB51C213BF51B45D63
:10479800C051B559C151B659C251B75911E3BF51AA
:1047A800B45FC051B55BC151B65BC251B75BB8517C
:1047B800BF27B951C023BA51C123BB51C22314D05A
:1047C800B8C0AEF0B9C0AFF0BAC0B0F0BBC0B1F07D
:1047D800AE1FAF1FB01FB11FAE51BF17AF51C017EB
:1047E800B051C117B151C217D890BB33BA33B933DE
:1047F800B833D890B437B537B637B737B32B180EA8
:10480800B365BCD7D890C233C133C033BF33010EB0
:10481800BF15B86FB96BBA6BBB6BD890C233C133D5
:10482800C033BF33B851BF27B951C023BA51C123D0
:10483800BB51C223C2A107D0D890C233C133C03301
:10484800BF33BD4BBE2BBF51C36FC051C46F7F0E6A
:10485800C115C56FC66BBDC0BCF0BCB1C58FD890C3
:10486800BC31C66FC69F4DD7CFC013F0D0C014F06F
:10487800D1C015F0D2C016F0000EABEC25F013C075
:1048880095F014C096F015C097F016C098F0CBC0FC
:1048980013F0CCC014F0CDC015F0CEC016F0010E48
:1048A800ABEC25F013C025F014C026F015C027F096
:1048B80016C028F0CBC013F0CCC014F0CDC015F052
:1048C800CEC016F0010EABEC25F013C021F014C0D9
:1048D80022F015C023F016C024F07EEC1CF021C095
:1048E80091F022C092F023C093F024C094F05FECC2
:1048F80022F091C0D3F092C0D4F093C0D5F094C008
:10490800D6F0CFC013F0D0C014F0D1C015F0D2C08B
:1049180016F0000EABEC25F013C095F014C096F01D
:1049280015C097F016C098F0C7C013F0C8C014F0AF
:10493800C9C015F0CAC016F0000EABEC25F013C0C4
:1049480091F014C092F015C093F016C094F05FEC8B
:1049580022F091C0BCF092C0BDF093C0BEF094C0EC
:10496800BFF0CFC013F0D0C014F0D1C015F0D2C042
:1049780016F0000EABEC25F013C095F014C096F0BD
:1049880015C097F016C098F0D3C091F0D4C092F03B
:10499800D5C093F0D6C094F05FEC22F091C0C0F07F
:1049A80092C0C1F093C0C2F094C0C3F00AEC2CF0DE
:1049B800BCC0D7F0BDC0D8F0BEC0D9F0BFC0DAF0D7
:1049C800DABF13D0D7C0AAF0D8C0ABF0D9C0ACF0CA
:1049D800DAC0ADF054EC23F0AAC0C7F0ABC0C8F001
:1049E800ACC0C9F0ADC0CAF01200C76BC86BC96BC8
:1049F800CA6B1200D0C013F0D1C014F0D2C015F0A9
:104A0800D3C016F0000EABEC25F013C095F014C01F
:104A180096F015C097F016C098F0CCC013F0CDC032
:104A280014F0CEC015F0CFC016F0010EABEC25F097
:104A380013C025F014C026F015C027F016C028F0C2
:104A4800C8C013F0C9C014F0CAC015F0CBC016F026
:104A5800010EABEC25F013C021F014C022F015C0F4
:104A680023F016C024F07EEC1CF021C091F022C087
:104A780092F023C093F024C094F05FEC22F091C030
:104A8800D4F092C0D5F093C0D6F094C0D7F0D0C07F
:104A980013F0D1C014F0D2C015F0D3C016F0000E38
:104AA800ABEC25F013C095F014C096F015C097F044
:104AB80016C098F0C4C013F0C5C014F0C6C015F0F5
:104AC800C7C016F0010EABEC25F013C091F014C06E
:104AD80092F015C093F016C094F05FEC22F091C0EC
:104AE800BCF092C0BDF093C0BEF094C0BFF0D0C07F
:104AF80013F0D1C014F0D2C015F0D3C016F0000ED8
:104B0800ABEC25F013C095F014C096F015C097F0E3
:104B180016C098F0D4C091F0D5C092F0D6C093F0EA
:104B2800D7C094F05FEC22F091C0C0F092C0C1F001
:104B380093C0C2F094C0C3F00AEC2CF0BCC0C4F01F
:104B4800BDC0C5F0BEC0C6F0BFC0C7F012001B6E26
:104B58001B501CE016AE1AD013C017F014C018F082
:104B680015C019F016C01AF0171E181E191E1A1EA5
:104B7800172A000E182219221A2217C01DF018C071
:104B88001EF019C01FF01AC020F008D013C01DF085
:104B980014C01EF015C01FF016C020F013501410DA
:104BA8001510161005E1136A146A156A166A1200C0
:104BB800960E1C6E06D01C2AD89020321F321E3248
:104BC8001D32176A186A196AFE0E20141A6E1750D9
:104BD800181019101A100CE0EED71C2A1D2A000E06
:104BE8001E221F222022D89020321F321E321D3250
:104BF800176A186A196A20501A6E17501810191077
:104C08001A1007E0EAD71C06D8901D361E361F3644
:104C180020361FBE03D0020E1C60F5D71CB002D090
:104C28007F0E1F16D8901C321CC017F0186A196A1C
:104C38001A6A17C01AF0196A186A176A17501D12EB
:104C480018501E1219501F121A5020121B5002E041
:104C580016BE208E1DC013F01EC014F01FC015F024
:104C680020C016F01200B2C013F0B3C014F0B4C0E4
:104C780015F0B5C016F0BA0E176EBCEC2BF000019B
:104C8800BBAF0ED0B5AF07D0B26BB36B800EB46FAD
:104C9800BF0EB56FBF0CB26BB36BB46BB56B1200C4
:104CA800BB5103E11D0EBA5D09E3B2C0B2F0B3C057
:104CB800B3F0B4C0B4F0B5C0B5F01200B2C0AAF0F9
:104CC800B3C0ABF0B4C0ACF0B5C0ADF015EC29F092
:104CD800AAC013F0ABC014F0ACC015F0ADC016F00C
:104CE800010EABEC25F013C0B6F014C0B7F015C038
:104CF800B8F016C0B9F0B2C013F0B3C014F0B4C025
:104D080015F0B5C016F0B6C017F0B7C018F0B8C0A7
:104D180019F0B9C01AF0B0EC29F01AE2B6C071F077
:104D2800B7C072F0B8C073F0B9C074F00001756B09
:104D3800766B800E776FBF0E786F14EC1FF071C022
:104D4800B2F072C0B3F073C0B4F074C0B5F0120022
:104D5800B6C0B2F0B7C0B3F0B8C0B4F0B9C0B5F0DF
:104D6800120087C089F088C08AF0D89089378A37BE
:104D7800D89089378A3785C08BF086C08CF08951E6
:104D88008B278A518C238BC0F6FF8CC0F7FFF86AFB
:104D98000900F5CF8DF00900F5CF8EF00900F5CFA9
:104DA8008FF00A00F5CF90F04BD08DC025F08EC063
:104DB80026F08FC027F090C028F081C021F082C073
:104DC80022F083C023F084C024F07EEC1CF021C0C4
:104DD80071F022C072F023C073F024C074F0000197
:104DE8008707D8A0880787C089F088C08AF0D8903C
:104DF80089378A37D89089378A3785C08BF086C03B
:104E08008CF089518B278A518C238BC0F6FF8CC07C
:104E1800F7FFF86A0900F5CF75F00900F5CF76F0CD
:104E28000900F5CF77F00A00F5CF78F014EC1FF001
:104E380071C08DF072C08EF073C08FF074C090F0A6
:104E480087518811B2E18DC081F08EC082F08FC089
:104E580083F090C084F01200550E0E01A06FAA0EC8
:104E6800A06FA091B551E00B1709B56F090EFB6F44
:104E78008D51E00B0B098D6F0B0EF36F550EA06F64
:104E8800AA0EA06FA081600ED86F060EDE6F8D6A25
:104E9800836A070E0F01116F106B070E886E8E6AFA
:104EA800846A196B290E896E010E136F8F6A856AE1
:104EB800216B206B800E8A6E030E9C6E400E9B6EDB
:104EC800080E9F6E240E9E6E900E9D6E0E019C6BBA
:104ED800440E9B6F080E9F6F900E9D6F240E9E6F61
:104EE8000F0E0F01576F840E606E280E5C6F100E48
:104EF800D56E580ED66E0E01CA9BD58ED06A010E9D
:104F0800D26E0101EB1DCD6EEC1DCE6E030ECF6E81
:104F1800FA0EB66EA00EB86E010EB96ED00EB76E50
:104F2800A00EF26E0E01C58FC58BC687C681C381E0
:104F3800C289A00C15C01BF01C6A1D6A14341B36EC
:104F480001E31C801B50236E235005E1136A146A89
:104F5800156A166A120019C01BF01C6A1D6A1834FB
:104F68001B3601E31C801B50226E2250EFE0148E8A
:104F7800156A188E196A1E6A1F6A206A216A7F0ECE
:104F8800235E2250980F235E180E226ED8901E368C
:104F98001F36203621361750135C185014581950F4
:104FA800155807E31750135E1850145A1950155A1C
:104FB8001E80D890133614361536222EE7D723AE26
:104FC8000CD02350800A970FC1E3D89021322032A9
:104FD8001F321E32233EF9D70CD0170E236407D098
:104FE800B5D7D8901E361F362036213623062350D3
:104FF800F8E11EC013F01FC014F020C015F021C046
:1050080016F0120015341634206E205005E1136A8C
:10501800146A156A166A120019341A341F6E1F5062
:10502800F6E0158E166A198E1A6A1B6A1C6A1D6AC2
:105038001E6A7F0E205E1F50A00F205E200E1F6E7E
:10504800D8901B361C361D361E361750135C185068
:105058001458195015581A50165809E31750135E6A
:105068001850145A1950155A1A50165A1B80D890AD
:1050780013361436153616361F2EE2D720AE0CD04E
:105088002050800A9F0FC3E3D8901E321D321C3275
:105098001B32203EF9D70CD01F0E206407D0B7D79B
:1050A800D8901B361C361D361E3620062050F8E1D7
:1050B8001BC013F01CC014F01DC015F01EC016F064
:1050C800120002D0164A172A16C0D9FF17C0DAFFF5
:1050D800200EDE18F7E016C0D9FF17C0DAFF090E58
:1050E800DE18F0E01B6A1C6A1A6A16C0D9FF17C0DE
:1050F800DAFF2D0EDE1802E11A2A07D016C0D9FFF2
:1051080017C0DAFF2B0EDE181BE1164A172A18D033
:105118000A0E1B02F3CF18F0F4CF19F01C02F3505B
:10512800192616C0D9FF17C0DAFFDF501826000E5F
:105138001922D00E18241B6EFF0E19201C6EE5D7FD
:1051480016C0D9FF17C0DAFFDF5002EC2DF0E0E2FD
:105158001A500DE01BC018F01CC019F0181E191EBB
:10516800184A192A18C016F019C017F012001BC0E7
:1051780016F01CC017F01200DB0E136E0F0E146E23
:10518800490E156E400E166ED5C017F0D6C018F031
:10519800D7C019F0D8C01AF0B0EC29F02EE2D5C06B
:1051A80071F0D6C072F0D7C073F0D8C074F0E40EB6
:1051B8000001756FCB0E766F960E776FC00E786F05
:1051C80014EC1FF071C0D9F072C0DAF073C0DBF0D4
:1051D80074C0DCF0D9C0C4F0DAC0C5F0DBC0C6F0DA
:1051E800DCC0C7F021EC1BF0C4C0D5F0C5C0D6F0B8
:1051F800C6C0D7F0C7C0D8F01200D5C071F0D6C06D
:1052080072F0D7C073F0D8C074F0DB0E0001756F70
:105218000F0E766FC90E776F3F0E786F14EC1FF084
:10522800D1D70001AC35AD353B6E3B5005E1AA6BDB
:10523800AB6BAC6BAD6B1200AAC0AEF0ABC0AFF0FD
:10524800ACC0B0F0ADC0B1F0200E05D0D890B133ED
:10525800B033AF33AE33E82EF9D7AE513A6EAC8FD8
:10526800AD6B960E3B5E3BAE0CD03B50800A970F61
:10527800DEE3D890AD33AC33AB33AA333B3EF9D73A
:105288000CD01F0E3B6407D0D2D7D890AA37AB37C3
:10529800AC37AD373B063B50F8E13A5008E0AD1F5C
:1052A800AC1FAB1FAA6D000EAB23AC23AD23AAC065
:1052B800AAF0ABC0ABF0ACC0ACF0ADC0ADF0120022
:1052C8005A0EF66E5A0EF76E000EF86E0900F5CFFC
:1052D800EBF10900F5CFECF10900F5CFEDF1560E31
:1052E800F66E5A0EF76E000EF86E00EE49F010EEEC
:1052F80004F00900F5CFEEFFE550E150FAE104EEC5
:105308002BF017EED0F0EE6AE550E150FCE1E250E8
:10531800FAE103EE00F0F00EEE6AE806FDE102EEB7
:1053280000F0D60EEE6AE806FDE101EE00F0D10EBF
:10533800EE6AE806FDE100EEF1F00D0EEE6AE80611
:10534800FDE100EE3CF00D0EEE6AE806FDE14D9041
:105358004D9200011BEF05F01B6A1C6A800E1514A4
:105368001D6E7F0E16141E6E1B501C101D101E1075
:1053780004E1136A146A156A166A1B6A1C6A800EAD
:1053880019141D6E7F0E1A141E6E1B501C101D1052
:105398001E1004E1176A186A196A1A6A16AE09D04B
:1053A800136C141ED8B0142A151ED8B0152A800EF6
:1053B80016561AAE09D0176C181ED8B0182A191E1E
:1053C800D8B0192A800E1A56800E161A1A1A1750B3
:1053D800135C18501458195015581A50165802E2F0
:1053E800D8901200D880120013501702F3CF1BF088
:1053F800F4CF1CF01D6A1E6A13501802F3501C26C5
:10540800F4501D22000E1E2214501702F3501C26C1
:10541800F4501D22000E1E2213501902F3501D26AF
:10542800F4501E2214501802F3501D26F4501E2268
:1054380015501702F3501D26F4501E221A5013025D
:10544800F3501E2614501902F3501E261550180248
:10545800F3501E2616501702F3501E261BC013F0D9
:105468001CC014F01DC015F01EC016F0120030D07C
:105478001EC017F01FC018F020C019F021C01AF084
:1054880020C013F021C014F074EC2CF013C01BF0F2
:1054980014C01CF0EFEC2AF01750181005E11EC0DC
:1054A8001EF01FC01FF012001E28136E000E1F20D2
:1054B800146E20C0F6FF21C0F7FFF86A0800F55007
:1054C800156E166A5DEC2CF013C01EF014C01FF0A8
:1054D8001E501F1006E01EC0D9FF1FC0DAFFDF50A4
:1054E800C7E11E6A1F6A12001E6A1CAE06D01B6C3A
:1054F8001C1ED8B01C2A010E1E6E1AAE06D0196CDE
:105508001A1ED8B01A2A010E1E1A1F6A206A1B50CA
:105518001C101BE0010E1D6E04D0D8901B361C36E3
:105528001D2A1CAEFAD7D8901F3620361B50195C9E
:105538001C501A5805E31B50195E1C501A5A1F803C
:10554800D8901C321B321D2EEED71E5004E01F6C63
:10555800201ED8B0202A1FC019F020C01AF012004F
:105568001B6A1C6A1D6A1E6A1750181019101A1037
:1055780029E0010E1F6E06D0D89017361836193656
:105588001A361F2A1AAEF8D7D8901B361C361D3685
:105598001E361750135C18501458195015581A50C5
:1055A800165809E31750135E1850145A1950155A13
:1055B8001A50165A1B80D8901A32193218321732DC
:1055C8001F2EE2D71BC013F01CC014F01DC015F02D
:1055D8001EC016F012002CD017C0D9FF18C0DAFF71
:1055E800DF500FE017C0D9FF18C0DAFFDF501D6E7B
:1055F80019C0F6FF1AC0F7FFF86A0800F5501D1821
:1056080013E017C0D9FF18C0DAFFDF501D6E19C0AC
:10561800F6FF1AC0F7FFF86A0800F5501D5C176E10
:10562800186AD8A018061200174A182A194A1A2AFE
:105638001B06D8A01C061B28CFE11C28CDE1176A41
:10564800186A1200186A14AE06D0136C141ED8B06B
:10565800142A010E186E16AE04D0156C161ED8B09A
:10566800162A1550161017E0010E176E04D0D890A0
:1056780015361636172A16AEFAD71550135C16507B
:10568800145804E31550135E1650145AD890163265
:105698001532172EF2D7185004E0136C141ED8B028
:1056A800142A13C013F014C014F012001750181065
:1056B80019101A1023E0010E1B6E06D0D890173669
:1056C800183619361A361B2A1AAEF8D71750135C33
:1056D80018501458195015581A50165808E31750EE
:1056E800135E1850145A1950155A1A50165AD89051
:1056F8001A321932183217321B2EE8D713C013F09A
:1057080014C014F015C015F016C016F012001A6A6D
:105718001B6A20D01A501524D96E1B501620DA6E39
:10572800DF50131A1D6A080E1C6E13A008D0D890FB
:1057380014321332010E131AA00E141A03D0D89083
:10574800143213321C06D8A01D061C501D10EDE1A2
:105758001A4A1B2A17501A5C1B50800A196E1850D7
:10576800800A1958D7E313C013F014C014F01200BC
:10577800135014101510161006E11750D96EDA6A76
:10578800DE6ADD6A000C16507F0B186E196AD89015
:10579800183619361750D96EDA6A18C0DEFF19C0E4
:1057A800DDFF1750D96EDA6A010E15AE000EDE1253
:1057B800000EDD121750D96EDA6A820EDE26FF0E51
:1057C800DD221650800B3F09166E159E1200F1C09F
:1057D80019F0F2C01AF0F3C01BF0F4C01CF013501B
:1057E8001924156E14501A20166E000E1B20176E01
:1057F800000E1C20186E15500001F15D1650F2596C
:105808001750F3591850F459EAE312000001800EBA
:10581800C31BBCC071F0BDC072F0BEC073F0BFC086
:1058280074F0C0C075F0C1C076F0C2C077F0C3C0D4
:1058380078F014EC1FF071C0BCF072C0BDF073C0FA
:10584800BEF074C0BFF0120060C021F061C022F049
:1058580062C023F063C024F0340E256EFA0E266E63
:105868008E0E276E3C0E286E7EEC1CF021C060F078
:1058780022C061F023C062F024C063F01200186EE9
:105888001A6A175014E0010E196E03D0D890173613
:10589800192A17AEFBD7D8901A361750185C03E3AD
:1058A8001750185E1A80D8901732192EF4D71A504C
:1058B800120013C0D9FF14C0DAFF1550DE1805E135
:1058C80013C013F014C014F0120013C0D9FF14C091
:1058D800DAFF134A142ADF50ECE1136A146A120043
:1058E80013C015F014C016F002D0154A162A15C0B8
:1058F800F6FF16C0F7FFF86A0800F550F6E11350F6
:10590800155C136E14501658146E1200146E080E9F
:10591800156E166AD89014341634166ED89014364C
:105928001350165C02E31350165E152EF3D716506B
:10593800120013501502F3CF17F0F4CF18F01350DC
:105948001602F350182614501502F350182617C0E3
:1059580013F018C014F01200186E010E176E7B0EAB
:10596800186003D0610E186005D01850F4EC2CF0C4
:1059780001E2176A17C016F016301200B5C0AAF077
:10598800B6C0ABF0AC6BAD6B3BEC19F0AAC0B5F090
:10599800ABC0B6F0ACC0B7F0ADC0B8F01200156E31
:1059A800010E146E200E151807E00E0E156003D0B8
:1059B800090E156001D0146A14C013F013301200D8
:1059C800135014101510161002E0800E161A13C08A
:1059D80013F014C014F015C015F016C016F012001C
:1059E800156E146A5B0E156005D0400E156402D062
:1059F800010E146E14C013F013301200156E146AE1
:105A08003A0E156005D02F0E156402D0010E146EE3
:105A180014C013F013301200136E7B0E136004D001
:105A2800600E136401D0139A13501200858C858A76
:105A3800146A010E136EEBEC2BF00E01C5891200EF
:105A4800136E0E01CDADFDD713C09AFE12000100F2
:055A58002814610A148E
:10FE5E00000000803F000020410000C84200007AF0
:10FE6E004400401C460050C3470024744980961835
:10FE7E004B20BCBE4C286B6E4EF9021550EC78AD83
:10FE8E0060CAF249710000803FCDCCCC3D0AD72329
:10FE9E003C6F12833A17B7D138ACC52737BD3786BA
:10FEAE003595BFD63377CC2B325F708930FFE6DBCA
:10FEBE002E08E53C1E6042A20D010000000A000063
:10FECE000064000000E803000010270000A0860177
